{
  "address": "0x52E7F30e458ef1c7AF45353F7DE8E3f79e5215F6",
  "abi": [
    {
      "inputs": [
        {
          "internalType": "string",
          "name": "_name",
          "type": "string"
        },
        {
          "internalType": "string",
          "name": "_symbol",
          "type": "string"
        },
        {
          "internalType": "string",
          "name": "_initBaseURI",
          "type": "string"
        }
      ],
      "stateMutability": "nonpayable",
      "type": "constructor"
    },
    {
      "anonymous": false,
      "inputs": [
        {
          "indexed": true,
          "internalType": "address",
          "name": "owner",
          "type": "address"
        },
        {
          "indexed": true,
          "internalType": "address",
          "name": "approved",
          "type": "address"
        },
        {
          "indexed": true,
          "internalType": "uint256",
          "name": "tokenId",
          "type": "uint256"
        }
      ],
      "name": "Approval",
      "type": "event"
    },
    {
      "anonymous": false,
      "inputs": [
        {
          "indexed": true,
          "internalType": "address",
          "name": "owner",
          "type": "address"
        },
        {
          "indexed": true,
          "internalType": "address",
          "name": "operator",
          "type": "address"
        },
        {
          "indexed": false,
          "internalType": "bool",
          "name": "approved",
          "type": "bool"
        }
      ],
      "name": "ApprovalForAll",
      "type": "event"
    },
    {
      "anonymous": false,
      "inputs": [
        {
          "indexed": true,
          "internalType": "address",
          "name": "previousOwner",
          "type": "address"
        },
        {
          "indexed": true,
          "internalType": "address",
          "name": "newOwner",
          "type": "address"
        }
      ],
      "name": "OwnershipTransferred",
      "type": "event"
    },
    {
      "anonymous": false,
      "inputs": [
        {
          "indexed": true,
          "internalType": "address",
          "name": "from",
          "type": "address"
        },
        {
          "indexed": true,
          "internalType": "address",
          "name": "to",
          "type": "address"
        },
        {
          "indexed": true,
          "internalType": "uint256",
          "name": "tokenId",
          "type": "uint256"
        }
      ],
      "name": "Transfer",
      "type": "event"
    },
    {
      "inputs": [],
      "name": "_initBaseURI",
      "outputs": [
        {
          "internalType": "string",
          "name": "",
          "type": "string"
        }
      ],
      "stateMutability": "view",
      "type": "function"
    },
    {
      "inputs": [],
      "name": "_name",
      "outputs": [
        {
          "internalType": "string",
          "name": "",
          "type": "string"
        }
      ],
      "stateMutability": "view",
      "type": "function"
    },
    {
      "inputs": [],
      "name": "_nftcreator",
      "outputs": [
        {
          "internalType": "address",
          "name": "",
          "type": "address"
        }
      ],
      "stateMutability": "view",
      "type": "function"
    },
    {
      "inputs": [],
      "name": "_symbol",
      "outputs": [
        {
          "internalType": "string",
          "name": "",
          "type": "string"
        }
      ],
      "stateMutability": "view",
      "type": "function"
    },
    {
      "inputs": [
        {
          "internalType": "address[]",
          "name": "_users",
          "type": "address[]"
        }
      ],
      "name": "addWhitelistUsers",
      "outputs": [],
      "stateMutability": "nonpayable",
      "type": "function"
    },
    {
      "inputs": [
        {
          "internalType": "address",
          "name": "",
          "type": "address"
        }
      ],
      "name": "addressMintedBalance",
      "outputs": [
        {
          "internalType": "uint256",
          "name": "",
          "type": "uint256"
        }
      ],
      "stateMutability": "view",
      "type": "function"
    },
    {
      "inputs": [
        {
          "internalType": "address",
          "name": "to",
          "type": "address"
        },
        {
          "internalType": "uint256",
          "name": "tokenId",
          "type": "uint256"
        }
      ],
      "name": "approve",
      "outputs": [],
      "stateMutability": "nonpayable",
      "type": "function"
    },
    {
      "inputs": [
        {
          "internalType": "address",
          "name": "owner",
          "type": "address"
        }
      ],
      "name": "balanceOf",
      "outputs": [
        {
          "internalType": "uint256",
          "name": "",
          "type": "uint256"
        }
      ],
      "stateMutability": "view",
      "type": "function"
    },
    {
      "inputs": [],
      "name": "baseExtension",
      "outputs": [
        {
          "internalType": "string",
          "name": "",
          "type": "string"
        }
      ],
      "stateMutability": "view",
      "type": "function"
    },
    {
      "inputs": [],
      "name": "baseURI",
      "outputs": [
        {
          "internalType": "string",
          "name": "",
          "type": "string"
        }
      ],
      "stateMutability": "view",
      "type": "function"
    },
    {
      "inputs": [],
      "name": "cost",
      "outputs": [
        {
          "internalType": "uint256",
          "name": "",
          "type": "uint256"
        }
      ],
      "stateMutability": "view",
      "type": "function"
    },
    {
      "inputs": [],
      "name": "deployedverified",
      "outputs": [
        {
          "internalType": "bool",
          "name": "",
          "type": "bool"
        }
      ],
      "stateMutability": "view",
      "type": "function"
    },
    {
      "inputs": [
        {
          "internalType": "uint256",
          "name": "tokenId",
          "type": "uint256"
        }
      ],
      "name": "getApproved",
      "outputs": [
        {
          "internalType": "address",
          "name": "",
          "type": "address"
        }
      ],
      "stateMutability": "view",
      "type": "function"
    },
    {
      "inputs": [],
      "name": "getIsRevealed",
      "outputs": [
        {
          "internalType": "uint256",
          "name": "",
          "type": "uint256"
        }
      ],
      "stateMutability": "view",
      "type": "function"
    },
    {
      "inputs": [],
      "name": "getMintState",
      "outputs": [
        {
          "internalType": "uint256",
          "name": "",
          "type": "uint256"
        }
      ],
      "stateMutability": "view",
      "type": "function"
    },
    {
      "inputs": [],
      "name": "getRemainCollections",
      "outputs": [
        {
          "internalType": "uint256",
          "name": "",
          "type": "uint256"
        }
      ],
      "stateMutability": "view",
      "type": "function"
    },
    {
      "inputs": [],
      "name": "getRemainNFTforUser",
      "outputs": [
        {
          "internalType": "uint256",
          "name": "",
          "type": "uint256"
        }
      ],
      "stateMutability": "view",
      "type": "function"
    },
    {
      "inputs": [
        {
          "internalType": "address",
          "name": "owner",
          "type": "address"
        },
        {
          "internalType": "address",
          "name": "operator",
          "type": "address"
        }
      ],
      "name": "isApprovedForAll",
      "outputs": [
        {
          "internalType": "bool",
          "name": "",
          "type": "bool"
        }
      ],
      "stateMutability": "view",
      "type": "function"
    },
    {
      "inputs": [],
      "name": "isPaused",
      "outputs": [
        {
          "internalType": "uint256",
          "name": "",
          "type": "uint256"
        }
      ],
      "stateMutability": "view",
      "type": "function"
    },
    {
      "inputs": [
        {
          "internalType": "address",
          "name": "_user",
          "type": "address"
        }
      ],
      "name": "isWhitelisted",
      "outputs": [
        {
          "internalType": "bool",
          "name": "",
          "type": "bool"
        }
      ],
      "stateMutability": "view",
      "type": "function"
    },
    {
      "inputs": [],
      "name": "maxMintAmount",
      "outputs": [
        {
          "internalType": "uint256",
          "name": "",
          "type": "uint256"
        }
      ],
      "stateMutability": "view",
      "type": "function"
    },
    {
      "inputs": [],
      "name": "maxSupply",
      "outputs": [
        {
          "internalType": "uint256",
          "name": "",
          "type": "uint256"
        }
      ],
      "stateMutability": "view",
      "type": "function"
    },
    {
      "inputs": [],
      "name": "metaDataFolder",
      "outputs": [
        {
          "internalType": "string",
          "name": "",
          "type": "string"
        }
      ],
      "stateMutability": "view",
      "type": "function"
    },
    {
      "inputs": [
        {
          "internalType": "address",
          "name": "_to",
          "type": "address"
        },
        {
          "internalType": "uint256",
          "name": "_mintAmount",
          "type": "uint256"
        }
      ],
      "name": "mint",
      "outputs": [],
      "stateMutability": "payable",
      "type": "function"
    },
    {
      "inputs": [],
      "name": "mintState",
      "outputs": [
        {
          "internalType": "uint256",
          "name": "",
          "type": "uint256"
        }
      ],
      "stateMutability": "view",
      "type": "function"
    },
    {
      "inputs": [],
      "name": "name",
      "outputs": [
        {
          "internalType": "string",
          "name": "",
          "type": "string"
        }
      ],
      "stateMutability": "view",
      "type": "function"
    },
    {
      "inputs": [],
      "name": "nftPerAddressLimit",
      "outputs": [
        {
          "internalType": "uint256",
          "name": "",
          "type": "uint256"
        }
      ],
      "stateMutability": "view",
      "type": "function"
    },
    {
      "inputs": [],
      "name": "notRevealedUri",
      "outputs": [
        {
          "internalType": "string",
          "name": "",
          "type": "string"
        }
      ],
      "stateMutability": "view",
      "type": "function"
    },
    {
      "inputs": [],
      "name": "onlyWhitelisted",
      "outputs": [
        {
          "internalType": "uint256",
          "name": "",
          "type": "uint256"
        }
      ],
      "stateMutability": "view",
      "type": "function"
    },
    {
      "inputs": [],
      "name": "owner",
      "outputs": [
        {
          "internalType": "address",
          "name": "",
          "type": "address"
        }
      ],
      "stateMutability": "view",
      "type": "function"
    },
    {
      "inputs": [
        {
          "internalType": "uint256",
          "name": "tokenId",
          "type": "uint256"
        }
      ],
      "name": "ownerOf",
      "outputs": [
        {
          "internalType": "address",
          "name": "",
          "type": "address"
        }
      ],
      "stateMutability": "view",
      "type": "function"
    },
    {
      "inputs": [
        {
          "internalType": "bool",
          "name": "_state",
          "type": "bool"
        }
      ],
      "name": "pause",
      "outputs": [],
      "stateMutability": "nonpayable",
      "type": "function"
    },
    {
      "inputs": [],
      "name": "paused",
      "outputs": [
        {
          "internalType": "bool",
          "name": "",
          "type": "bool"
        }
      ],
      "stateMutability": "view",
      "type": "function"
    },
    {
      "inputs": [],
      "name": "remainTokenAmount",
      "outputs": [
        {
          "internalType": "uint256",
          "name": "",
          "type": "uint256"
        }
      ],
      "stateMutability": "view",
      "type": "function"
    },
    {
      "inputs": [],
      "name": "renounceOwnership",
      "outputs": [],
      "stateMutability": "nonpayable",
      "type": "function"
    },
    {
      "inputs": [
        {
          "internalType": "uint256",
          "name": "_revealed",
          "type": "uint256"
        }
      ],
      "name": "reveal",
      "outputs": [],
      "stateMutability": "nonpayable",
      "type": "function"
    },
    {
      "inputs": [],
      "name": "revealed",
      "outputs": [
        {
          "internalType": "uint256",
          "name": "",
          "type": "uint256"
        }
      ],
      "stateMutability": "view",
      "type": "function"
    },
    {
      "inputs": [
        {
          "internalType": "address",
          "name": "from",
          "type": "address"
        },
        {
          "internalType": "address",
          "name": "to",
          "type": "address"
        },
        {
          "internalType": "uint256",
          "name": "tokenId",
          "type": "uint256"
        }
      ],
      "name": "safeTransferFrom",
      "outputs": [],
      "stateMutability": "nonpayable",
      "type": "function"
    },
    {
      "inputs": [
        {
          "internalType": "address",
          "name": "from",
          "type": "address"
        },
        {
          "internalType": "address",
          "name": "to",
          "type": "address"
        },
        {
          "internalType": "uint256",
          "name": "tokenId",
          "type": "uint256"
        },
        {
          "internalType": "bytes",
          "name": "_data",
          "type": "bytes"
        }
      ],
      "name": "safeTransferFrom",
      "outputs": [],
      "stateMutability": "nonpayable",
      "type": "function"
    },
    {
      "inputs": [
        {
          "internalType": "address",
          "name": "operator",
          "type": "address"
        },
        {
          "internalType": "bool",
          "name": "approved",
          "type": "bool"
        }
      ],
      "name": "setApprovalForAll",
      "outputs": [],
      "stateMutability": "nonpayable",
      "type": "function"
    },
    {
      "inputs": [
        {
          "internalType": "string",
          "name": "_newBaseExtension",
          "type": "string"
        }
      ],
      "name": "setBaseExtension",
      "outputs": [],
      "stateMutability": "nonpayable",
      "type": "function"
    },
    {
      "inputs": [
        {
          "internalType": "string",
          "name": "_newBaseURI",
          "type": "string"
        }
      ],
      "name": "setBaseURI",
      "outputs": [],
      "stateMutability": "nonpayable",
      "type": "function"
    },
    {
      "inputs": [
        {
          "internalType": "uint256",
          "name": "_newCost",
          "type": "uint256"
        }
      ],
      "name": "setCost",
      "outputs": [],
      "stateMutability": "nonpayable",
      "type": "function"
    },
    {
      "inputs": [
        {
          "internalType": "uint256",
          "name": "_mintState",
          "type": "uint256"
        }
      ],
      "name": "setMintState",
      "outputs": [],
      "stateMutability": "nonpayable",
      "type": "function"
    },
    {
      "inputs": [
        {
          "internalType": "uint256",
          "name": "_limit",
          "type": "uint256"
        }
      ],
      "name": "setNftPerAddressLimit",
      "outputs": [],
      "stateMutability": "nonpayable",
      "type": "function"
    },
    {
      "inputs": [
        {
          "internalType": "uint256",
          "name": "_state",
          "type": "uint256"
        }
      ],
      "name": "setOnlyWhitelisted",
      "outputs": [],
      "stateMutability": "nonpayable",
      "type": "function"
    },
    {
      "inputs": [
        {
          "internalType": "string",
          "name": "_RevealedURI",
          "type": "string"
        }
      ],
      "name": "setRevealedURI",
      "outputs": [],
      "stateMutability": "nonpayable",
      "type": "function"
    },
    {
      "inputs": [
        {
          "internalType": "address[]",
          "name": "_users",
          "type": "address[]"
        }
      ],
      "name": "setWhitelistUsers",
      "outputs": [],
      "stateMutability": "nonpayable",
      "type": "function"
    },
    {
      "inputs": [
        {
          "internalType": "uint256",
          "name": "_newmaxMintAmount",
          "type": "uint256"
        }
      ],
      "name": "setmaxMintAmount",
      "outputs": [],
      "stateMutability": "nonpayable",
      "type": "function"
    },
    {
      "inputs": [
        {
          "internalType": "bytes4",
          "name": "interfaceId",
          "type": "bytes4"
        }
      ],
      "name": "supportsInterface",
      "outputs": [
        {
          "internalType": "bool",
          "name": "",
          "type": "bool"
        }
      ],
      "stateMutability": "view",
      "type": "function"
    },
    {
      "inputs": [],
      "name": "symbol",
      "outputs": [
        {
          "internalType": "string",
          "name": "",
          "type": "string"
        }
      ],
      "stateMutability": "view",
      "type": "function"
    },
    {
      "inputs": [
        {
          "internalType": "uint256",
          "name": "index",
          "type": "uint256"
        }
      ],
      "name": "tokenByIndex",
      "outputs": [
        {
          "internalType": "uint256",
          "name": "",
          "type": "uint256"
        }
      ],
      "stateMutability": "view",
      "type": "function"
    },
    {
      "inputs": [
        {
          "internalType": "address",
          "name": "owner",
          "type": "address"
        },
        {
          "internalType": "uint256",
          "name": "index",
          "type": "uint256"
        }
      ],
      "name": "tokenOfOwnerByIndex",
      "outputs": [
        {
          "internalType": "uint256",
          "name": "",
          "type": "uint256"
        }
      ],
      "stateMutability": "view",
      "type": "function"
    },
    {
      "inputs": [
        {
          "internalType": "uint256",
          "name": "tokenId",
          "type": "uint256"
        }
      ],
      "name": "tokenURI",
      "outputs": [
        {
          "internalType": "string",
          "name": "",
          "type": "string"
        }
      ],
      "stateMutability": "view",
      "type": "function"
    },
    {
      "inputs": [],
      "name": "totalSupply",
      "outputs": [
        {
          "internalType": "uint256",
          "name": "",
          "type": "uint256"
        }
      ],
      "stateMutability": "view",
      "type": "function"
    },
    {
      "inputs": [
        {
          "internalType": "address",
          "name": "from",
          "type": "address"
        },
        {
          "internalType": "address",
          "name": "to",
          "type": "address"
        },
        {
          "internalType": "uint256",
          "name": "tokenId",
          "type": "uint256"
        }
      ],
      "name": "transferFrom",
      "outputs": [],
      "stateMutability": "nonpayable",
      "type": "function"
    },
    {
      "inputs": [
        {
          "internalType": "address",
          "name": "newOwner",
          "type": "address"
        }
      ],
      "name": "transferOwnership",
      "outputs": [],
      "stateMutability": "nonpayable",
      "type": "function"
    },
    {
      "inputs": [
        {
          "internalType": "address",
          "name": "_owner",
          "type": "address"
        }
      ],
      "name": "walletOfOwner",
      "outputs": [
        {
          "internalType": "uint256[]",
          "name": "",
          "type": "uint256[]"
        }
      ],
      "stateMutability": "view",
      "type": "function"
    },
    {
      "inputs": [
        {
          "internalType": "uint256",
          "name": "",
          "type": "uint256"
        }
      ],
      "name": "whitelistedAddresses",
      "outputs": [
        {
          "internalType": "address",
          "name": "",
          "type": "address"
        }
      ],
      "stateMutability": "view",
      "type": "function"
    },
    {
      "inputs": [],
      "name": "withdraw",
      "outputs": [],
      "stateMutability": "payable",
      "type": "function"
    }
  ],
  "transactionHash": "0x210d9025b85ed762efd57be25d5e8698c203688f9732e0117da6f050d3e8e878",
  "args": [
    "The Underground",
    "UNDRGD",
    "https://theunderground.mypinata.cloud/ipfs/QmVSnrUE2KofvLESP6oLumV7JSHBC846eKiP3UA2UvwErG/"
  ],
  "numDeployments": 15,
  "solcInputHash": "4ba5e8f26f79ab5a62387628898b7091",
  "bytecode": "0x60c06040526005608081905264173539b7b760d91b60a09081526200002891600d919062000236565b506040805160208101918290526000908190526200004991600e9162000236565b50604051806080016040528060608152602001620034e46060913980516200007a91600f9160209091019062000236565b506705898862d16180006013556109c460148190556015556064601681905560175560006018819055601955601a805461ffff191690556001601b55600a54601c80546001600160a01b0319166001600160a01b03909216919091179055348015620000e557600080fd5b50604051620035443803806200354483398101604081905262000108916200038f565b8251839083906200012190600090602085019062000236565b5080516200013790600190602084019062000236565b505050620001546200014e6200016860201b60201c565b6200016c565b6200015f81620001be565b5050506200046f565b3390565b600a80546001600160a01b038381166001600160a01b0319831681179093556040519116919082907f8be0079c531659141344cd1fd0a4f28419497f9722a3daafe3b4186f6b6457e090600090a35050565b600a546001600160a01b031633146200021d5760405162461bcd60e51b815260206004820181905260248201527f4f776e61626c653a2063616c6c6572206973206e6f7420746865206f776e6572604482015260640160405180910390fd5b80516200023290600c90602084019062000236565b5050565b82805462000244906200041c565b90600052602060002090601f016020900481019282620002685760008555620002b3565b82601f106200028357805160ff1916838001178555620002b3565b82800160010185558215620002b3579182015b82811115620002b357825182559160200191906001019062000296565b50620002c1929150620002c5565b5090565b5b80821115620002c15760008155600101620002c6565b600082601f830112620002ed578081fd5b81516001600160401b03808211156200030a576200030a62000459565b604051601f8301601f19908116603f0116810190828211818310171562000335576200033562000459565b8160405283815260209250868385880101111562000351578485fd5b8491505b8382101562000374578582018301518183018401529082019062000355565b838211156200038557848385830101525b9695505050505050565b600080600060608486031215620003a4578283fd5b83516001600160401b0380821115620003bb578485fd5b620003c987838801620002dc565b94506020860151915080821115620003df578384fd5b620003ed87838801620002dc565b9350604086015191508082111562000403578283fd5b506200041286828701620002dc565b9150509250925092565b600181811c908216806200043157607f821691505b602082108114156200045357634e487b7160e01b600052602260045260246000fd5b50919050565b634e487b7160e01b600052604160045260246000fd5b613065806200047f6000396000f3fe6080604052600436106103975760003560e01c80636c0360eb116101dc578063ba4e5c4911610102578063c87b56dd116100a0578063d5abeb011161006f578063d5abeb01146109d8578063da3ef23f146109ee578063e985e9c514610a0e578063f2fde38b14610a5757600080fd5b8063c87b56dd14610963578063cea7cf9014610983578063d0eb26b0146109a3578063d28d8852146109c357600080fd5b8063c2ca0ac5116100dc578063c2ca0ac5146108f8578063c5f9816b14610918578063c668286214610938578063c7873b831461094d57600080fd5b8063ba4e5c49146108ac578063ba7d2c76146108cc578063c051e38a146108e257600080fd5b80639502743d1161017a578063aac8520a11610149578063aac8520a14610843578063b09f126614610862578063b187bd2614610877578063b88d4fde1461088c57600080fd5b80639502743d146107e357806395d89b41146107f85780639c70b5121461080d578063a22cb4651461082357600080fd5b8063743cc26a116101b6578063743cc26a1461077b578063774a8835146107905780637f00c7a6146107a55780638da5cb5b146107c557600080fd5b80636c0360eb1461073157806370a0823114610746578063715018a61461076657600080fd5b80632beab4b7116102c1578063438b63001161025f57806355f804b31161022e57806355f804b3146106b75780635c975abb146106d75780636352211e146106f1578063686b28121461071157600080fd5b8063438b63001461063457806344a0d68a146106615780634f6ccce71461068157806351830227146106a157600080fd5b80633af32abf1161029b5780633af32abf146105d95780633ccfd60b146105f957806340c10f191461060157806342842e0e1461061457600080fd5b80632beab4b7146105795780632f745c5914610599578063326d4388146105b957600080fd5b8063095ea7b31161033957806318cae2691161030857806318cae269146105015780631de18b361461052e578063239c70ae1461054357806323b872dd1461055957600080fd5b8063095ea7b3146104965780630bb862d1146104b657806313faede6146104d657806318160ddd146104ec57600080fd5b806306fdde031161037557806306fdde031461041257806307c0af4714610434578063081812fc14610449578063081c8c441461048157600080fd5b806301ffc9a71461039c57806302329a29146103d157806302fcb7af146103f3575b600080fd5b3480156103a857600080fd5b506103bc6103b7366004612bd8565b610a77565b60405190151581526020015b60405180910390f35b3480156103dd57600080fd5b506103f16103ec366004612bbe565b610aa2565b005b3480156103ff57600080fd5b506015545b6040519081526020016103c8565b34801561041e57600080fd5b50610427610ae8565b6040516103c89190612ddd565b34801561044057600080fd5b50601954610404565b34801561045557600080fd5b50610469610464366004612c56565b610b7a565b6040516001600160a01b0390911681526020016103c8565b34801561048d57600080fd5b50610427610c0f565b3480156104a257600080fd5b506103f16104b1366004612b25565b610c9d565b3480156104c257600080fd5b506103f16104d1366004612c56565b610db3565b3480156104e257600080fd5b5061040460135481565b3480156104f857600080fd5b50600854610404565b34801561050d57600080fd5b5061040461051c3660046129f5565b601e6020526000908152604090205481565b34801561053a57600080fd5b50610427610ec5565b34801561054f57600080fd5b5061040460165481565b34801561056557600080fd5b506103f1610574366004612a48565b610ed2565b34801561058557600080fd5b506103f1610594366004612b4e565b610f03565b3480156105a557600080fd5b506104046105b4366004612b25565b610f45565b3480156105c557600080fd5b506103f16105d4366004612c10565b610fdb565b3480156105e557600080fd5b506103bc6105f43660046129f5565b611018565b6103f1611090565b6103f161060f366004612b25565b61112b565b34801561062057600080fd5b506103f161062f366004612a48565b6114ac565b34801561064057600080fd5b5061065461064f3660046129f5565b6114c7565b6040516103c89190612d99565b34801561066d57600080fd5b506103f161067c366004612c56565b611585565b34801561068d57600080fd5b5061040461069c366004612c56565b6115b4565b3480156106ad57600080fd5b5061040460195481565b3480156106c357600080fd5b506103f16106d2366004612c10565b611655565b3480156106e357600080fd5b50601a546103bc9060ff1681565b3480156106fd57600080fd5b5061046961070c366004612c56565b611696565b34801561071d57600080fd5b506103f161072c366004612b4e565b61170d565b34801561073d57600080fd5b506104276117bd565b34801561075257600080fd5b506104046107613660046129f5565b6117ca565b34801561077257600080fd5b506103f1611851565b34801561078757600080fd5b50610404611887565b34801561079c57600080fd5b50601b54610404565b3480156107b157600080fd5b506103f16107c0366004612c56565b6118d9565b3480156107d157600080fd5b50600a546001600160a01b0316610469565b3480156107ef57600080fd5b50610427611908565b34801561080457600080fd5b50610427611915565b34801561081957600080fd5b5061040460185481565b34801561082f57600080fd5b506103f161083e366004612afc565b611924565b34801561084f57600080fd5b50601a546103bc90610100900460ff1681565b34801561086e57600080fd5b5061042761192f565b34801561088357600080fd5b5061040461193c565b34801561089857600080fd5b506103f16108a7366004612a83565b61195b565b3480156108b857600080fd5b506104696108c7366004612c56565b61198d565b3480156108d857600080fd5b5061040460175481565b3480156108ee57600080fd5b50610404601b5481565b34801561090457600080fd5b506103f1610913366004612c56565b6119b7565b34801561092457600080fd5b506103f1610933366004612c56565b6119e6565b34801561094457600080fd5b50610427611a15565b34801561095957600080fd5b5061040460155481565b34801561096f57600080fd5b5061042761097e366004612c56565b611a22565b34801561098f57600080fd5b50601c54610469906001600160a01b031681565b3480156109af57600080fd5b506103f16109be366004612c56565b611c45565b3480156109cf57600080fd5b50610427611c74565b3480156109e457600080fd5b5061040460145481565b3480156109fa57600080fd5b506103f1610a09366004612c10565b611c81565b348015610a1a57600080fd5b506103bc610a29366004612a16565b6001600160a01b03918216600090815260056020908152604080832093909416825291909152205460ff1690565b348015610a6357600080fd5b506103f1610a723660046129f5565b611cbe565b60006001600160e01b0319821663780e9d6360e01b1480610a9c5750610a9c82611d56565b92915050565b600a546001600160a01b03163314610ad55760405162461bcd60e51b8152600401610acc90612e42565b60405180910390fd5b601a805460ff1916911515919091179055565b606060008054610af790612f6d565b80601f0160208091040260200160405190810160405280929190818152602001828054610b2390612f6d565b8015610b705780601f10610b4557610100808354040283529160200191610b70565b820191906000526020600020905b815481529060010190602001808311610b5357829003601f168201915b5050505050905090565b6000818152600260205260408120546001600160a01b0316610bf35760405162461bcd60e51b815260206004820152602c60248201527f4552433732313a20617070726f76656420717565727920666f72206e6f6e657860448201526b34b9ba32b73a103a37b5b2b760a11b6064820152608401610acc565b506000908152600460205260409020546001600160a01b031690565b600f8054610c1c90612f6d565b80601f0160208091040260200160405190810160405280929190818152602001828054610c4890612f6d565b8015610c955780601f10610c6a57610100808354040283529160200191610c95565b820191906000526020600020905b815481529060010190602001808311610c7857829003601f168201915b505050505081565b6000610ca882611696565b9050806001600160a01b0316836001600160a01b03161415610d165760405162461bcd60e51b815260206004820152602160248201527f4552433732313a20617070726f76616c20746f2063757272656e74206f776e656044820152603960f91b6064820152608401610acc565b336001600160a01b0382161480610d325750610d328133610a29565b610da45760405162461bcd60e51b815260206004820152603860248201527f4552433732313a20617070726f76652063616c6c6572206973206e6f74206f7760448201527f6e6572206e6f7220617070726f76656420666f7220616c6c00000000000000006064820152608401610acc565b610dae8383611da6565b505050565b600a546001600160a01b03163314610ddd5760405162461bcd60e51b8152600401610acc90612e42565b6001811015610e285760405162461bcd60e51b8152602060048201526017602482015276024b7383aba102bb937b7339036b4b73a1039ba30ba329604d1b6044820152606401610acc565b6002811115610e735760405162461bcd60e51b8152602060048201526017602482015276024b7383aba102bb937b7339036b4b73a1039ba30ba329604d1b6044820152606401610acc565b601b8190556001811415610e9f57610e8b60016119e6565b610e9c6705898862d1618000611585565b50565b601b5460021415610e9c57610eb460006119e6565b610e9c6706eccddb2eeb8000611585565b60128054610c1c90612f6d565b610edc3382611e14565b610ef85760405162461bcd60e51b8152600401610acc90612e77565b610dae838383611f0b565b600a546001600160a01b03163314610f2d5760405162461bcd60e51b8152600401610acc90612e42565b610f39601d6000612849565b610dae601d8383612867565b6000610f50836117ca565b8210610fb25760405162461bcd60e51b815260206004820152602b60248201527f455243373231456e756d657261626c653a206f776e657220696e646578206f7560448201526a74206f6620626f756e647360a81b6064820152608401610acc565b506001600160a01b03919091166000908152600660209081526040808320938352929052205490565b600a546001600160a01b031633146110055760405162461bcd60e51b8152600401610acc90612e42565b61100f60016119b7565b610e9c81611655565b6000805b601d5481101561108757826001600160a01b0316601d828154811061105157634e487b7160e01b600052603260045260246000fd5b6000918252602090912001546001600160a01b031614156110755750600192915050565b8061107f81612fa8565b91505061101c565b50600092915050565b600a546001600160a01b031633146110ba5760405162461bcd60e51b8152600401610acc90612e42565b60006110ce600a546001600160a01b031690565b6001600160a01b03164760405160006040518083038185875af1925050503d8060008114611118576040519150601f19603f3d011682016040523d82523d6000602084013e61111d565b606091505b5050905080610e9c57600080fd5b600061113660085490565b601a5490915060ff161561117d5760405162461bcd60e51b815260206004820152600e60248201526d135a5b9d081a5cc81c185d5cd95960921b6044820152606401610acc565b336111ca5760405162461bcd60e51b815260206004820152601b60248201527f526563697069656e742073686f756c642062652070726573656e7400000000006044820152606401610acc565b6000821161121a5760405162461bcd60e51b815260206004820152601b60248201527f4e65656420746f206d696e74206174206c656173742031204e465400000000006044820152606401610acc565b6000601554116112655760405162461bcd60e51b815260206004820152601660248201527513585e08139195081b1a5b5a5d08195e18d95959195960521b6044820152606401610acc565b600a546001600160a01b0316331461144157601854600114156113445761128b33611018565b6112d75760405162461bcd60e51b815260206004820152601760248201527f55736572206973206e6f742077686974656c69737465640000000000000000006044820152606401610acc565b336000908152601e60205260409020546017546112f48483612ec8565b11156113425760405162461bcd60e51b815260206004820152601c60248201527f4d6178204e4654207065722061646472657373206578636565646564000000006044820152606401610acc565b505b346113915760405162461bcd60e51b815260206004820181905260248201527f526f79616c74792076616c75652073686f756c6420626520706f7369746976656044820152606401610acc565b8160135461139f9190612ef4565b3410156113e35760405162461bcd60e51b8152602060048201526012602482015271496e73756666696369656e742066756e647360701b6044820152606401610acc565b6016548211156114415760405162461bcd60e51b8152602060048201526024808201527f4d6178206d696e7420616d6f756e74207065722073657373696f6e20657863656044820152631959195960e21b6064820152608401610acc565b60015b8281116114a65761145e846114598385612ec8565b6120b2565b336000908152601e6020526040812080549161147983612fa8565b90915550506015805490600061148e83612f56565b9190505550808061149e90612fa8565b915050611444565b50505050565b610dae8383836040518060200160405280600081525061195b565b606060006114d4836117ca565b905060008167ffffffffffffffff8111156114ff57634e487b7160e01b600052604160045260246000fd5b604051908082528060200260200182016040528015611528578160200160208202803683370190505b50905060005b8281101561157d576115408582610f45565b82828151811061156057634e487b7160e01b600052603260045260246000fd5b60209081029190910101528061157581612fa8565b91505061152e565b509392505050565b600a546001600160a01b031633146115af5760405162461bcd60e51b8152600401610acc90612e42565b601355565b60006115bf60085490565b82106116225760405162461bcd60e51b815260206004820152602c60248201527f455243373231456e756d657261626c653a20676c6f62616c20696e646578206f60448201526b7574206f6620626f756e647360a01b6064820152608401610acc565b6008828154811061164357634e487b7160e01b600052603260045260246000fd5b90600052602060002001549050919050565b600a546001600160a01b0316331461167f5760405162461bcd60e51b8152600401610acc90612e42565b805161169290600c9060208401906128ca565b5050565b6000818152600260205260408120546001600160a01b031680610a9c5760405162461bcd60e51b815260206004820152602960248201527f4552433732313a206f776e657220717565727920666f72206e6f6e657869737460448201526832b73a103a37b5b2b760b91b6064820152608401610acc565b600a546001600160a01b031633146117375760405162461bcd60e51b8152600401610acc90612e42565b60005b81811015610dae57601d83838381811061176457634e487b7160e01b600052603260045260246000fd5b905060200201602081019061177991906129f5565b81546001810183556000928352602090922090910180546001600160a01b0319166001600160a01b03909216919091179055806117b581612fa8565b91505061173a565b600c8054610c1c90612f6d565b60006001600160a01b0382166118355760405162461bcd60e51b815260206004820152602a60248201527f4552433732313a2062616c616e636520717565727920666f7220746865207a65604482015269726f206164647265737360b01b6064820152608401610acc565b506001600160a01b031660009081526003602052604090205490565b600a546001600160a01b0316331461187b5760405162461bcd60e51b8152600401610acc90612e42565b61188560006120cc565b565b60008061189c600a546001600160a01b031690565b6001600160a01b0316336001600160a01b0316146118d157336000908152601e6020526040902054601754610a9c9190612f13565b5060c8919050565b600a546001600160a01b031633146119035760405162461bcd60e51b8152600401610acc90612e42565b601655565b600e8054610c1c90612f6d565b606060018054610af790612f6d565b61169233838361211e565b60118054610c1c90612f6d565b601a5460009060ff161515600114156119555750600190565b50600090565b6119653383611e14565b6119815760405162461bcd60e51b8152600401610acc90612e77565b6114a6848484846121ed565b601d818154811061199d57600080fd5b6000918252602090912001546001600160a01b0316905081565b600a546001600160a01b031633146119e15760405162461bcd60e51b8152600401610acc90612e42565b601955565b600a546001600160a01b03163314611a105760405162461bcd60e51b8152600401610acc90612e42565b601855565b600d8054610c1c90612f6d565b6000818152600260205260409020546060906001600160a01b0316611aa15760405162461bcd60e51b815260206004820152602f60248201527f4552433732314d657461646174613a2055524920717565727920666f72206e6f60448201526e3732bc34b9ba32b73a103a37b5b2b760891b6064820152608401610acc565b6000828152600b602052604081208054611aba90612f6d565b80601f0160208091040260200160405190810160405280929190818152602001828054611ae690612f6d565b8015611b335780601f10611b0857610100808354040283529160200191611b33565b820191906000526020600020905b815481529060010190602001808311611b1657829003601f168201915b505050505090506000611b44612220565b905060195460001415611be557600f8054611b5e90612f6d565b80601f0160208091040260200160405190810160405280929190818152602001828054611b8a90612f6d565b8015611bd75780601f10611bac57610100808354040283529160200191611bd7565b820191906000526020600020905b815481529060010190602001808311611bba57829003601f168201915b505050505092505050919050565b8051611bf2575092915050565b815115611c27578082600d604051602001611c0f93929190612c9a565b60405160208183030381529060405292505050919050565b80611c318561222f565b600d604051602001611c0f93929190612c9a565b600a546001600160a01b03163314611c6f5760405162461bcd60e51b8152600401610acc90612e42565b601755565b60108054610c1c90612f6d565b600a546001600160a01b03163314611cab5760405162461bcd60e51b8152600401610acc90612e42565b805161169290600d9060208401906128ca565b600a546001600160a01b03163314611ce85760405162461bcd60e51b8152600401610acc90612e42565b6001600160a01b038116611d4d5760405162461bcd60e51b815260206004820152602660248201527f4f776e61626c653a206e6577206f776e657220697320746865207a65726f206160448201526564647265737360d01b6064820152608401610acc565b610e9c816120cc565b60006001600160e01b031982166380ac58cd60e01b1480611d8757506001600160e01b03198216635b5e139f60e01b145b80610a9c57506301ffc9a760e01b6001600160e01b0319831614610a9c565b600081815260046020526040902080546001600160a01b0319166001600160a01b0384169081179091558190611ddb82611696565b6001600160a01b03167f8c5be1e5ebec7d5bd14f71427d1e84f3dd0314c0f7b2291e5b200ac8c7c3b92560405160405180910390a45050565b6000818152600260205260408120546001600160a01b0316611e8d5760405162461bcd60e51b815260206004820152602c60248201527f4552433732313a206f70657261746f7220717565727920666f72206e6f6e657860448201526b34b9ba32b73a103a37b5b2b760a11b6064820152608401610acc565b6000611e9883611696565b9050806001600160a01b0316846001600160a01b03161480611ed35750836001600160a01b0316611ec884610b7a565b6001600160a01b0316145b80611f0357506001600160a01b0380821660009081526005602090815260408083209388168352929052205460ff165b949350505050565b826001600160a01b0316611f1e82611696565b6001600160a01b031614611f825760405162461bcd60e51b815260206004820152602560248201527f4552433732313a207472616e736665722066726f6d20696e636f72726563742060448201526437bbb732b960d91b6064820152608401610acc565b6001600160a01b038216611fe45760405162461bcd60e51b8152602060048201526024808201527f4552433732313a207472616e7366657220746f20746865207a65726f206164646044820152637265737360e01b6064820152608401610acc565b611fef838383612349565b611ffa600082611da6565b6001600160a01b0383166000908152600360205260408120805460019290612023908490612f13565b90915550506001600160a01b0382166000908152600360205260408120805460019290612051908490612ec8565b909155505060008181526002602052604080822080546001600160a01b0319166001600160a01b0386811691821790925591518493918716917fddf252ad1be2c89b69c2b068fc378daa952ba7f163c4a11628f55a4df523b3ef91a4505050565b611692828260405180602001604052806000815250612401565b600a80546001600160a01b038381166001600160a01b0319831681179093556040519116919082907f8be0079c531659141344cd1fd0a4f28419497f9722a3daafe3b4186f6b6457e090600090a35050565b816001600160a01b0316836001600160a01b031614156121805760405162461bcd60e51b815260206004820152601960248201527f4552433732313a20617070726f766520746f2063616c6c6572000000000000006044820152606401610acc565b6001600160a01b03838116600081815260056020908152604080832094871680845294825291829020805460ff191686151590811790915591519182527f17307eab39ab6107e8899845ad3d59bd9653f200f220920489ca2b5937696c31910160405180910390a3505050565b6121f8848484611f0b565b61220484848484612434565b6114a65760405162461bcd60e51b8152600401610acc90612df0565b6060600c8054610af790612f6d565b6060816122535750506040805180820190915260018152600360fc1b602082015290565b8160005b811561227d578061226781612fa8565b91506122769050600a83612ee0565b9150612257565b60008167ffffffffffffffff8111156122a657634e487b7160e01b600052604160045260246000fd5b6040519080825280601f01601f1916602001820160405280156122d0576020820181803683370190505b5090505b8415611f03576122e5600183612f13565b91506122f2600a86612fc3565b6122fd906030612ec8565b60f81b81838151811061232057634e487b7160e01b600052603260045260246000fd5b60200101906001600160f81b031916908160001a905350612342600a86612ee0565b94506122d4565b6001600160a01b0383166123a45761239f81600880546000838152600960205260408120829055600182018355919091527ff3f7a9fe364faab93b216da50a3214154f22a0a2b415b23a84c8169e8b636ee30155565b6123c7565b816001600160a01b0316836001600160a01b0316146123c7576123c78382612541565b6001600160a01b0382166123de57610dae816125de565b826001600160a01b0316826001600160a01b031614610dae57610dae82826126b7565b61240b83836126fb565b6124186000848484612434565b610dae5760405162461bcd60e51b8152600401610acc90612df0565b60006001600160a01b0384163b1561253657604051630a85bd0160e11b81526001600160a01b0385169063150b7a0290612478903390899088908890600401612d5c565b602060405180830381600087803b15801561249257600080fd5b505af19250505080156124c2575060408051601f3d908101601f191682019092526124bf91810190612bf4565b60015b61251c573d8080156124f0576040519150601f19603f3d011682016040523d82523d6000602084013e6124f5565b606091505b5080516125145760405162461bcd60e51b8152600401610acc90612df0565b805181602001fd5b6001600160e01b031916630a85bd0160e11b149050611f03565b506001949350505050565b6000600161254e846117ca565b6125589190612f13565b6000838152600760205260409020549091508082146125ab576001600160a01b03841660009081526006602090815260408083208584528252808320548484528184208190558352600790915290208190555b5060009182526007602090815260408084208490556001600160a01b039094168352600681528383209183525290812055565b6008546000906125f090600190612f13565b6000838152600960205260408120546008805493945090928490811061262657634e487b7160e01b600052603260045260246000fd5b90600052602060002001549050806008838154811061265557634e487b7160e01b600052603260045260246000fd5b600091825260208083209091019290925582815260099091526040808220849055858252812055600880548061269b57634e487b7160e01b600052603160045260246000fd5b6001900381819060005260206000200160009055905550505050565b60006126c2836117ca565b6001600160a01b039093166000908152600660209081526040808320868452825280832085905593825260079052919091209190915550565b6001600160a01b0382166127515760405162461bcd60e51b815260206004820181905260248201527f4552433732313a206d696e7420746f20746865207a65726f20616464726573736044820152606401610acc565b6000818152600260205260409020546001600160a01b0316156127b65760405162461bcd60e51b815260206004820152601c60248201527f4552433732313a20746f6b656e20616c7265616479206d696e746564000000006044820152606401610acc565b6127c260008383612349565b6001600160a01b03821660009081526003602052604081208054600192906127eb908490612ec8565b909155505060008181526002602052604080822080546001600160a01b0319166001600160a01b03861690811790915590518392907fddf252ad1be2c89b69c2b068fc378daa952ba7f163c4a11628f55a4df523b3ef908290a45050565b5080546000825590600052602060002090810190610e9c919061293e565b8280548282559060005260206000209081019282156128ba579160200282015b828111156128ba5781546001600160a01b0319166001600160a01b03843516178255602090920191600190910190612887565b506128c692915061293e565b5090565b8280546128d690612f6d565b90600052602060002090601f0160209004810192826128f857600085556128ba565b82601f1061291157805160ff19168380011785556128ba565b828001600101855582156128ba579182015b828111156128ba578251825591602001919060010190612923565b5b808211156128c6576000815560010161293f565b600067ffffffffffffffff8084111561296e5761296e613003565b604051601f8501601f19908116603f0116810190828211818310171561299657612996613003565b816040528093508581528686860111156129af57600080fd5b858560208301376000602087830101525050509392505050565b80356001600160a01b03811681146129e057600080fd5b919050565b803580151581146129e057600080fd5b600060208284031215612a06578081fd5b612a0f826129c9565b9392505050565b60008060408385031215612a28578081fd5b612a31836129c9565b9150612a3f602084016129c9565b90509250929050565b600080600060608486031215612a5c578081fd5b612a65846129c9565b9250612a73602085016129c9565b9150604084013590509250925092565b60008060008060808587031215612a98578081fd5b612aa1856129c9565b9350612aaf602086016129c9565b925060408501359150606085013567ffffffffffffffff811115612ad1578182fd5b8501601f81018713612ae1578182fd5b612af087823560208401612953565b91505092959194509250565b60008060408385031215612b0e578182fd5b612b17836129c9565b9150612a3f602084016129e5565b60008060408385031215612b37578182fd5b612b40836129c9565b946020939093013593505050565b60008060208385031215612b60578182fd5b823567ffffffffffffffff80821115612b77578384fd5b818501915085601f830112612b8a578384fd5b813581811115612b98578485fd5b8660208260051b8501011115612bac578485fd5b60209290920196919550909350505050565b600060208284031215612bcf578081fd5b612a0f826129e5565b600060208284031215612be9578081fd5b8135612a0f81613019565b600060208284031215612c05578081fd5b8151612a0f81613019565b600060208284031215612c21578081fd5b813567ffffffffffffffff811115612c37578182fd5b8201601f81018413612c47578182fd5b611f0384823560208401612953565b600060208284031215612c67578081fd5b5035919050565b60008151808452612c86816020860160208601612f2a565b601f01601f19169290920160200192915050565b600084516020612cad8285838a01612f2a565b855191840191612cc08184848a01612f2a565b85549201918390600181811c9080831680612cdc57607f831692505b858310811415612cfa57634e487b7160e01b88526022600452602488fd5b808015612d0e5760018114612d1f57612d4b565b60ff19851688528388019550612d4b565b60008b815260209020895b85811015612d435781548a820152908401908801612d2a565b505083880195505b50939b9a5050505050505050505050565b6001600160a01b0385811682528416602082015260408101839052608060608201819052600090612d8f90830184612c6e565b9695505050505050565b6020808252825182820181905260009190848201906040850190845b81811015612dd157835183529284019291840191600101612db5565b50909695505050505050565b602081526000612a0f6020830184612c6e565b60208082526032908201527f4552433732313a207472616e7366657220746f206e6f6e20455243373231526560408201527131b2b4bb32b91034b6b83632b6b2b73a32b960711b606082015260800190565b6020808252818101527f4f776e61626c653a2063616c6c6572206973206e6f7420746865206f776e6572604082015260600190565b60208082526031908201527f4552433732313a207472616e736665722063616c6c6572206973206e6f74206f6040820152701ddb995c881b9bdc88185c1c1c9bdd9959607a1b606082015260800190565b60008219821115612edb57612edb612fd7565b500190565b600082612eef57612eef612fed565b500490565b6000816000190483118215151615612f0e57612f0e612fd7565b500290565b600082821015612f2557612f25612fd7565b500390565b60005b83811015612f45578181015183820152602001612f2d565b838111156114a65750506000910152565b600081612f6557612f65612fd7565b506000190190565b600181811c90821680612f8157607f821691505b60208210811415612fa257634e487b7160e01b600052602260045260246000fd5b50919050565b6000600019821415612fbc57612fbc612fd7565b5060010190565b600082612fd257612fd2612fed565b500690565b634e487b7160e01b600052601160045260246000fd5b634e487b7160e01b600052601260045260246000fd5b634e487b7160e01b600052604160045260246000fd5b6001600160e01b031981168114610e9c57600080fdfea2646970667358221220833c233f68285f1694a121082dcaa7e2036780612ac1c73f4418eb7454b49f6d64736f6c6343000804003368747470733a2f2f746865756e64657267726f756e642e6d7970696e6174612e636c6f75642f697066732f516d637a367153683642396d445231366f31527164426f556a717531347869634b427435325462673856695968502f312e6a736f6e",
  "devdoc": {
    "kind": "dev",
    "methods": {
      "approve(address,uint256)": {
        "details": "See {IERC721-approve}."
      },
      "balanceOf(address)": {
        "details": "See {IERC721-balanceOf}."
      },
      "getApproved(uint256)": {
        "details": "See {IERC721-getApproved}."
      },
      "isApprovedForAll(address,address)": {
        "details": "See {IERC721-isApprovedForAll}."
      },
      "name()": {
        "details": "See {IERC721Metadata-name}."
      },
      "owner()": {
        "details": "Returns the address of the current owner."
      },
      "ownerOf(uint256)": {
        "details": "See {IERC721-ownerOf}."
      },
      "renounceOwnership()": {
        "details": "Leaves the contract without owner. It will not be possible to call `onlyOwner` functions anymore. Can only be called by the current owner. NOTE: Renouncing ownership will leave the contract without an owner, thereby removing any functionality that is only available to the owner."
      },
      "safeTransferFrom(address,address,uint256)": {
        "details": "See {IERC721-safeTransferFrom}."
      },
      "safeTransferFrom(address,address,uint256,bytes)": {
        "details": "See {IERC721-safeTransferFrom}."
      },
      "setApprovalForAll(address,bool)": {
        "details": "See {IERC721-setApprovalForAll}."
      },
      "supportsInterface(bytes4)": {
        "details": "See {IERC165-supportsInterface}."
      },
      "symbol()": {
        "details": "See {IERC721Metadata-symbol}."
      },
      "tokenByIndex(uint256)": {
        "details": "See {IERC721Enumerable-tokenByIndex}."
      },
      "tokenOfOwnerByIndex(address,uint256)": {
        "details": "See {IERC721Enumerable-tokenOfOwnerByIndex}."
      },
      "tokenURI(uint256)": {
        "details": "See {IERC721Metadata-tokenURI}."
      },
      "totalSupply()": {
        "details": "See {IERC721Enumerable-totalSupply}."
      },
      "transferFrom(address,address,uint256)": {
        "details": "See {IERC721-transferFrom}."
      },
      "transferOwnership(address)": {
        "details": "Transfers ownership of the contract to a new account (`newOwner`). Can only be called by the current owner."
      }
    },
    "version": 1
  },
  "userdoc": {
    "kind": "user",
    "methods": {},
    "version": 1
  },
  "storageLayout": {
    "storage": [
      {
        "astId": 130,
        "contract": "contracts/TheUnderground.sol:TheUnderground",
        "label": "_name",
        "offset": 0,
        "slot": "0",
        "type": "t_string_storage"
      },
      {
        "astId": 132,
        "contract": "contracts/TheUnderground.sol:TheUnderground",
        "label": "_symbol",
        "offset": 0,
        "slot": "1",
        "type": "t_string_storage"
      },
      {
        "astId": 136,
        "contract": "contracts/TheUnderground.sol:TheUnderground",
        "label": "_owners",
        "offset": 0,
        "slot": "2",
        "type": "t_mapping(t_uint256,t_address)"
      },
      {
        "astId": 140,
        "contract": "contracts/TheUnderground.sol:TheUnderground",
        "label": "_balances",
        "offset": 0,
        "slot": "3",
        "type": "t_mapping(t_address,t_uint256)"
      },
      {
        "astId": 144,
        "contract": "contracts/TheUnderground.sol:TheUnderground",
        "label": "_tokenApprovals",
        "offset": 0,
        "slot": "4",
        "type": "t_mapping(t_uint256,t_address)"
      },
      {
        "astId": 150,
        "contract": "contracts/TheUnderground.sol:TheUnderground",
        "label": "_operatorApprovals",
        "offset": 0,
        "slot": "5",
        "type": "t_mapping(t_address,t_mapping(t_address,t_bool))"
      },
      {
        "astId": 1119,
        "contract": "contracts/TheUnderground.sol:TheUnderground",
        "label": "_ownedTokens",
        "offset": 0,
        "slot": "6",
        "type": "t_mapping(t_address,t_mapping(t_uint256,t_uint256))"
      },
      {
        "astId": 1123,
        "contract": "contracts/TheUnderground.sol:TheUnderground",
        "label": "_ownedTokensIndex",
        "offset": 0,
        "slot": "7",
        "type": "t_mapping(t_uint256,t_uint256)"
      },
      {
        "astId": 1126,
        "contract": "contracts/TheUnderground.sol:TheUnderground",
        "label": "_allTokens",
        "offset": 0,
        "slot": "8",
        "type": "t_array(t_uint256)dyn_storage"
      },
      {
        "astId": 1130,
        "contract": "contracts/TheUnderground.sol:TheUnderground",
        "label": "_allTokensIndex",
        "offset": 0,
        "slot": "9",
        "type": "t_mapping(t_uint256,t_uint256)"
      },
      {
        "astId": 7,
        "contract": "contracts/TheUnderground.sol:TheUnderground",
        "label": "_owner",
        "offset": 0,
        "slot": "10",
        "type": "t_address"
      },
      {
        "astId": 2071,
        "contract": "contracts/TheUnderground.sol:TheUnderground",
        "label": "_tokenURIs",
        "offset": 0,
        "slot": "11",
        "type": "t_mapping(t_uint256,t_string_storage)"
      },
      {
        "astId": 2073,
        "contract": "contracts/TheUnderground.sol:TheUnderground",
        "label": "baseURI",
        "offset": 0,
        "slot": "12",
        "type": "t_string_storage"
      },
      {
        "astId": 2076,
        "contract": "contracts/TheUnderground.sol:TheUnderground",
        "label": "baseExtension",
        "offset": 0,
        "slot": "13",
        "type": "t_string_storage"
      },
      {
        "astId": 2079,
        "contract": "contracts/TheUnderground.sol:TheUnderground",
        "label": "metaDataFolder",
        "offset": 0,
        "slot": "14",
        "type": "t_string_storage"
      },
      {
        "astId": 2082,
        "contract": "contracts/TheUnderground.sol:TheUnderground",
        "label": "notRevealedUri",
        "offset": 0,
        "slot": "15",
        "type": "t_string_storage"
      },
      {
        "astId": 2084,
        "contract": "contracts/TheUnderground.sol:TheUnderground",
        "label": "_name",
        "offset": 0,
        "slot": "16",
        "type": "t_string_storage"
      },
      {
        "astId": 2086,
        "contract": "contracts/TheUnderground.sol:TheUnderground",
        "label": "_symbol",
        "offset": 0,
        "slot": "17",
        "type": "t_string_storage"
      },
      {
        "astId": 2088,
        "contract": "contracts/TheUnderground.sol:TheUnderground",
        "label": "_initBaseURI",
        "offset": 0,
        "slot": "18",
        "type": "t_string_storage"
      },
      {
        "astId": 2091,
        "contract": "contracts/TheUnderground.sol:TheUnderground",
        "label": "cost",
        "offset": 0,
        "slot": "19",
        "type": "t_uint256"
      },
      {
        "astId": 2094,
        "contract": "contracts/TheUnderground.sol:TheUnderground",
        "label": "maxSupply",
        "offset": 0,
        "slot": "20",
        "type": "t_uint256"
      },
      {
        "astId": 2097,
        "contract": "contracts/TheUnderground.sol:TheUnderground",
        "label": "remainTokenAmount",
        "offset": 0,
        "slot": "21",
        "type": "t_uint256"
      },
      {
        "astId": 2100,
        "contract": "contracts/TheUnderground.sol:TheUnderground",
        "label": "maxMintAmount",
        "offset": 0,
        "slot": "22",
        "type": "t_uint256"
      },
      {
        "astId": 2103,
        "contract": "contracts/TheUnderground.sol:TheUnderground",
        "label": "nftPerAddressLimit",
        "offset": 0,
        "slot": "23",
        "type": "t_uint256"
      },
      {
        "astId": 2106,
        "contract": "contracts/TheUnderground.sol:TheUnderground",
        "label": "onlyWhitelisted",
        "offset": 0,
        "slot": "24",
        "type": "t_uint256"
      },
      {
        "astId": 2109,
        "contract": "contracts/TheUnderground.sol:TheUnderground",
        "label": "revealed",
        "offset": 0,
        "slot": "25",
        "type": "t_uint256"
      },
      {
        "astId": 2112,
        "contract": "contracts/TheUnderground.sol:TheUnderground",
        "label": "paused",
        "offset": 0,
        "slot": "26",
        "type": "t_bool"
      },
      {
        "astId": 2115,
        "contract": "contracts/TheUnderground.sol:TheUnderground",
        "label": "deployedverified",
        "offset": 1,
        "slot": "26",
        "type": "t_bool"
      },
      {
        "astId": 2118,
        "contract": "contracts/TheUnderground.sol:TheUnderground",
        "label": "mintState",
        "offset": 0,
        "slot": "27",
        "type": "t_uint256"
      },
      {
        "astId": 2122,
        "contract": "contracts/TheUnderground.sol:TheUnderground",
        "label": "_nftcreator",
        "offset": 0,
        "slot": "28",
        "type": "t_address"
      },
      {
        "astId": 2125,
        "contract": "contracts/TheUnderground.sol:TheUnderground",
        "label": "whitelistedAddresses",
        "offset": 0,
        "slot": "29",
        "type": "t_array(t_address)dyn_storage"
      },
      {
        "astId": 2129,
        "contract": "contracts/TheUnderground.sol:TheUnderground",
        "label": "addressMintedBalance",
        "offset": 0,
        "slot": "30",
        "type": "t_mapping(t_address,t_uint256)"
      }
    ],
    "types": {
      "t_address": {
        "encoding": "inplace",
        "label": "address",
        "numberOfBytes": "20"
      },
      "t_array(t_address)dyn_storage": {
        "base": "t_address",
        "encoding": "dynamic_array",
        "label": "address[]",
        "numberOfBytes": "32"
      },
      "t_array(t_uint256)dyn_storage": {
        "base": "t_uint256",
        "encoding": "dynamic_array",
        "label": "uint256[]",
        "numberOfBytes": "32"
      },
      "t_bool": {
        "encoding": "inplace",
        "label": "bool",
        "numberOfBytes": "1"
      },
      "t_mapping(t_address,t_bool)": {
        "encoding": "mapping",
        "key": "t_address",
        "label": "mapping(address => bool)",
        "numberOfBytes": "32",
        "value": "t_bool"
      },
      "t_mapping(t_address,t_mapping(t_address,t_bool))": {
        "encoding": "mapping",
        "key": "t_address",
        "label": "mapping(address => mapping(address => bool))",
        "numberOfBytes": "32",
        "value": "t_mapping(t_address,t_bool)"
      },
      "t_mapping(t_address,t_mapping(t_uint256,t_uint256))": {
        "encoding": "mapping",
        "key": "t_address",
        "label": "mapping(address => mapping(uint256 => uint256))",
        "numberOfBytes": "32",
        "value": "t_mapping(t_uint256,t_uint256)"
      },
      "t_mapping(t_address,t_uint256)": {
        "encoding": "mapping",
        "key": "t_address",
        "label": "mapping(address => uint256)",
        "numberOfBytes": "32",
        "value": "t_uint256"
      },
      "t_mapping(t_uint256,t_address)": {
        "encoding": "mapping",
        "key": "t_uint256",
        "label": "mapping(uint256 => address)",
        "numberOfBytes": "32",
        "value": "t_address"
      },
      "t_mapping(t_uint256,t_string_storage)": {
        "encoding": "mapping",
        "key": "t_uint256",
        "label": "mapping(uint256 => string)",
        "numberOfBytes": "32",
        "value": "t_string_storage"
      },
      "t_mapping(t_uint256,t_uint256)": {
        "encoding": "mapping",
        "key": "t_uint256",
        "label": "mapping(uint256 => uint256)",
        "numberOfBytes": "32",
        "value": "t_uint256"
      },
      "t_string_storage": {
        "encoding": "bytes",
        "label": "string",
        "numberOfBytes": "32"
      },
      "t_uint256": {
        "encoding": "inplace",
        "label": "uint256",
        "numberOfBytes": "32"
      }
    }
  }
}