{
  "address": "0x2c2Ce15ba0F20e053cac843D30687CF9EE097ad7",
  "abi": [
    {
      "inputs": [
        {
          "internalType": "address",
          "name": "_token",
          "type": "address"
        }
      ],
      "stateMutability": "nonpayable",
      "type": "constructor"
    },
    {
      "anonymous": false,
      "inputs": [
        {
          "indexed": true,
          "internalType": "address",
          "name": "to",
          "type": "address"
        },
        {
          "indexed": false,
          "internalType": "uint256",
          "name": "value",
          "type": "uint256"
        }
      ],
      "name": "BoughtTokens",
      "type": "event"
    },
    {
      "anonymous": false,
      "inputs": [
        {
          "indexed": true,
          "internalType": "address",
          "name": "from",
          "type": "address"
        },
        {
          "indexed": true,
          "internalType": "address",
          "name": "to",
          "type": "address"
        },
        {
          "indexed": false,
          "internalType": "uint256",
          "name": "value",
          "type": "uint256"
        },
        {
          "indexed": false,
          "internalType": "uint256",
          "name": "tokens",
          "type": "uint256"
        }
      ],
      "name": "Invest",
      "type": "event"
    },
    {
      "anonymous": false,
      "inputs": [
        {
          "indexed": false,
          "internalType": "address",
          "name": "to",
          "type": "address"
        },
        {
          "indexed": false,
          "internalType": "uint256",
          "name": "amount",
          "type": "uint256"
        },
        {
          "indexed": false,
          "internalType": "uint256",
          "name": "time",
          "type": "uint256"
        }
      ],
      "name": "TokenBurn",
      "type": "event"
    },
    {
      "stateMutability": "payable",
      "type": "fallback"
    },
    {
      "inputs": [],
      "name": "BUSD_Addr",
      "outputs": [
        {
          "internalType": "address",
          "name": "",
          "type": "address"
        }
      ],
      "stateMutability": "view",
      "type": "function"
    },
    {
      "inputs": [],
      "name": "ICOState",
      "outputs": [
        {
          "internalType": "enum SYRFICO.State",
          "name": "",
          "type": "uint8"
        }
      ],
      "stateMutability": "view",
      "type": "function"
    },
    {
      "inputs": [],
      "name": "USDC_Addr",
      "outputs": [
        {
          "internalType": "address",
          "name": "",
          "type": "address"
        }
      ],
      "stateMutability": "view",
      "type": "function"
    },
    {
      "inputs": [],
      "name": "USDT_Addr",
      "outputs": [
        {
          "internalType": "address",
          "name": "",
          "type": "address"
        }
      ],
      "stateMutability": "view",
      "type": "function"
    },
    {
      "inputs": [],
      "name": "admin",
      "outputs": [
        {
          "internalType": "address",
          "name": "",
          "type": "address"
        }
      ],
      "stateMutability": "view",
      "type": "function"
    },
    {
      "inputs": [],
      "name": "burn",
      "outputs": [
        {
          "internalType": "bool",
          "name": "",
          "type": "bool"
        }
      ],
      "stateMutability": "nonpayable",
      "type": "function"
    },
    {
      "inputs": [
        {
          "internalType": "uint256",
          "name": "token_amount",
          "type": "uint256"
        },
        {
          "internalType": "address",
          "name": "_tokenAddr",
          "type": "address"
        }
      ],
      "name": "buyWithTokens",
      "outputs": [
        {
          "internalType": "bool",
          "name": "",
          "type": "bool"
        }
      ],
      "stateMutability": "nonpayable",
      "type": "function"
    },
    {
      "inputs": [
        {
          "internalType": "uint256",
          "name": "_hardCap",
          "type": "uint256"
        }
      ],
      "name": "changeHardCap",
      "outputs": [],
      "stateMutability": "nonpayable",
      "type": "function"
    },
    {
      "inputs": [
        {
          "internalType": "uint256",
          "name": "_tokenPrice",
          "type": "uint256"
        }
      ],
      "name": "changeTokenPrice",
      "outputs": [],
      "stateMutability": "nonpayable",
      "type": "function"
    },
    {
      "inputs": [],
      "name": "endICO",
      "outputs": [],
      "stateMutability": "nonpayable",
      "type": "function"
    },
    {
      "inputs": [],
      "name": "getICOState",
      "outputs": [
        {
          "internalType": "string",
          "name": "",
          "type": "string"
        }
      ],
      "stateMutability": "view",
      "type": "function"
    },
    {
      "inputs": [],
      "name": "getICOTokenBalance",
      "outputs": [
        {
          "internalType": "uint256",
          "name": "",
          "type": "uint256"
        }
      ],
      "stateMutability": "view",
      "type": "function"
    },
    {
      "inputs": [],
      "name": "getLatestPrice",
      "outputs": [
        {
          "internalType": "uint256",
          "name": "",
          "type": "uint256"
        }
      ],
      "stateMutability": "view",
      "type": "function"
    },
    {
      "inputs": [],
      "name": "haltICO",
      "outputs": [],
      "stateMutability": "nonpayable",
      "type": "function"
    },
    {
      "inputs": [],
      "name": "hardCap",
      "outputs": [
        {
          "internalType": "uint256",
          "name": "",
          "type": "uint256"
        }
      ],
      "stateMutability": "view",
      "type": "function"
    },
    {
      "inputs": [],
      "name": "invest",
      "outputs": [
        {
          "internalType": "bool",
          "name": "",
          "type": "bool"
        }
      ],
      "stateMutability": "payable",
      "type": "function"
    },
    {
      "inputs": [
        {
          "internalType": "address",
          "name": "",
          "type": "address"
        }
      ],
      "name": "investedAmountOf",
      "outputs": [
        {
          "internalType": "uint256",
          "name": "",
          "type": "uint256"
        }
      ],
      "stateMutability": "view",
      "type": "function"
    },
    {
      "inputs": [
        {
          "internalType": "address",
          "name": "_investor",
          "type": "address"
        }
      ],
      "name": "investorBalanceOf",
      "outputs": [
        {
          "internalType": "uint256",
          "name": "",
          "type": "uint256"
        }
      ],
      "stateMutability": "view",
      "type": "function"
    },
    {
      "inputs": [],
      "name": "raisedAmount",
      "outputs": [
        {
          "internalType": "uint256",
          "name": "",
          "type": "uint256"
        }
      ],
      "stateMutability": "view",
      "type": "function"
    },
    {
      "inputs": [],
      "name": "resumeICO",
      "outputs": [],
      "stateMutability": "nonpayable",
      "type": "function"
    },
    {
      "inputs": [],
      "name": "startICO",
      "outputs": [],
      "stateMutability": "nonpayable",
      "type": "function"
    },
    {
      "inputs": [],
      "name": "token",
      "outputs": [
        {
          "internalType": "contract WSYRF",
          "name": "",
          "type": "address"
        }
      ],
      "stateMutability": "view",
      "type": "function"
    },
    {
      "inputs": [],
      "name": "tokenPrice",
      "outputs": [
        {
          "internalType": "uint256",
          "name": "",
          "type": "uint256"
        }
      ],
      "stateMutability": "view",
      "type": "function"
    },
    {
      "inputs": [],
      "name": "withdrawBNB",
      "outputs": [],
      "stateMutability": "nonpayable",
      "type": "function"
    },
    {
      "inputs": [
        {
          "internalType": "address",
          "name": "_tokenAddr",
          "type": "address"
        }
      ],
      "name": "withdrawToken",
      "outputs": [],
      "stateMutability": "nonpayable",
      "type": "function"
    },
    {
      "stateMutability": "payable",
      "type": "receive"
    }
  ],
  "transactionHash": "0x04336e8a36f32a53875307ff819a25f8340c073b572ecd8380af1737c9385b48",
  "args": [
    "0x558C304e163671B2e6278de7b0cE384A28441111"
  ],
  "numDeployments": 1,
  "solcInputHash": "42574cb3150d1c86229a641bc5e760aa",
  "bytecode": "0x6080604052600680546001600160a01b031990811673e71a93d5089db5f115dbd9644ca8538a698133621790915560078054821673b3e08b8bf27d7325d31fb520d0df786074a128e617905560088054821673632c9b56d8187eeeedda3dc1bc241245d5d0a7f517905560098054909116732514895c72f50d8bd4b4f9b1110f0d6bd2c975261790556032600a556301312d00600b553480156100a157600080fd5b506040516119a53803806119a58339810160408190526100c091610137565b600180546001600160a01b03199081163317909155600280546001600160a01b03938416908316179055600654600380548316918416919091179055600754600480548316918416919091179055600854600580548316918416919091179055600954600080549092169216919091179055610167565b60006020828403121561014957600080fd5b81516001600160a01b038116811461016057600080fd5b9392505050565b61182f806101766000396000f3fe60806040526004361061019a5760003560e01c80637fa8c158116100e1578063c59ee1dc1161008a578063f978a2c011610064578063f978a2c01461041e578063fb86a4041461043e578063fbc94f2414610454578063fc0c546a14610474576101a9565b8063c59ee1dc146103e0578063e8b5e51f146103f6578063f851a440146103fe576101a9565b80638e15f473116100bb5780638e15f4731461038f5780639cbd7da5146103a4578063aeecdc2c146103b9576101a9565b80637fa8c158146103445780637ff9b59614610359578063894760691461036f576101a9565b80632ac11b4f116101435780634f2484091161011d5780634f248409146102fa5780636127b2ca1461030f57806361fba37d14610324576101a9565b80632ac11b4f146102a35780632e659d93146102c357806344df8e70146102e5576101a9565b80631aae3460116101745780631aae3460146102335780631d111d131461026e57806324f32f8214610283576101a9565b80630139ddff146101b1578063129caa18146101e657806312ab1cba146101fb576101a9565b366101a9576101a7610494565b005b6101a7610494565b3480156101bd57600080fd5b506101d16101cc3660046115fe565b610708565b60405190151581526020015b60405180910390f35b3480156101f257600080fd5b506101a7610a8b565b34801561020757600080fd5b5060085461021b906001600160a01b031681565b6040516001600160a01b0390911681526020016101dd565b34801561023f57600080fd5b5061026061024e36600461162a565b600d6020526000908152604090205481565b6040519081526020016101dd565b34801561027a57600080fd5b506101a7610b58565b34801561028f57600080fd5b506101a761029e366004611645565b610bdb565b3480156102af57600080fd5b5060075461021b906001600160a01b031681565b3480156102cf57600080fd5b506102d8610c30565b6040516101dd919061165e565b3480156102f157600080fd5b506101d1610d6c565b34801561030657600080fd5b506101a7610fa5565b34801561031b57600080fd5b5061026061106f565b34801561033057600080fd5b5061026061033f36600461162a565b6110e1565b34801561035057600080fd5b506101a7611150565b34801561036557600080fd5b50610260600a5481565b34801561037b57600080fd5b506101a761038a36600461162a565b611219565b34801561039b57600080fd5b5061026061141a565b3480156103b057600080fd5b506101a76114ac565b3480156103c557600080fd5b50600e546103d39060ff1681565b6040516101dd91906116c2565b3480156103ec57600080fd5b50610260600c5481565b6101d1610494565b34801561040a57600080fd5b5060015461021b906001600160a01b031681565b34801561042a57600080fd5b5060065461021b906001600160a01b031681565b34801561044a57600080fd5b50610260600b5481565b34801561046057600080fd5b506101a761046f366004611645565b611562565b34801561048057600080fd5b5060025461021b906001600160a01b031681565b60006001600e5460ff1660038111156104af576104af6116ac565b146105015760405162461bcd60e51b815260206004820152601160248201527f49434f2069736e27742072756e6e696e6700000000000000000000000000000060448201526064015b60405180910390fd5b600b5461051690670de0b6b3a76400006115b7565b61055561054c610534620f4240600a546115b790919063ffffffff16565b61054661053f61141a565b34906115b7565b906115ca565b600c54906115d6565b11156105a35760405162461bcd60e51b815260206004820152601960248201527f53656e642077697468696e20686172646361702072616e67650000000000000060448201526064016104f8565b60006105c0610534620f4240600a546115b790919063ffffffff16565b336000908152600d60205260409020549091506105dd90826115d6565b336000908152600d6020526040902055600c546105fa90826115d6565b600c5560025460405163a9059cbb60e01b8152336004820152602481018390526000916001600160a01b03169063a9059cbb906044016020604051808303816000875af115801561064f573d6000803e3d6000fd5b505050506040513d601f19601f8201168201806040525081019061067391906116ea565b9050806106c25760405162461bcd60e51b815260206004820152601060248201527f4661696c656420746f20496e766573740000000000000000000000000000000060448201526064016104f8565b6040805134815260208101849052339130917f2e206bbdd5787cd6d3e97144dec044f9f15dd77a257afd27fa70cad6f03feae3910160405180910390a360019250505090565b60006001600e5460ff166003811115610723576107236116ac565b146107705760405162461bcd60e51b815260206004820152601160248201527f49434f2069736e27742072756e6e696e6700000000000000000000000000000060448201526064016104f8565b600083116107c05760405162461bcd60e51b815260206004820152601c60248201527f416d6f756e742063616e2774206265207a65726f206e756d626572730000000060448201526064016104f8565b600b546107d590670de0b6b3a76400006115b7565b600a546107eb9061054c906105468760646115b7565b11156108395760405162461bcd60e51b815260206004820152601960248201527f53656e642077697468696e20686172646361702072616e67650000000000000060448201526064016104f8565b600a5460009061084e906105468660646115b7565b6006549091506001600160a01b03908116908416036108e9576003546040516323b872dd60e01b8152336004820152306024820152604481018690526001600160a01b03909116906323b872dd906064015b6020604051808303816000875af11580156108bf573d6000803e3d6000fd5b505050506040513d601f19601f820116820180604052508101906108e391906116ea565b5061099a565b6007546001600160a01b039081169084160361093d57600480546040516323b872dd60e01b81523392810192909252306024830152604482018690526001600160a01b0316906323b872dd906064016108a0565b6008546001600160a01b0390811690841603610990576005546040516323b872dd60e01b8152336004820152306024820152604481018690526001600160a01b03909116906323b872dd906064016108a0565b6000915050610a85565b336000908152600d60205260409020546109b490826115d6565b336000908152600d6020526040902055600c546109d190826115d6565b600c5560025460405163a9059cbb60e01b8152336004820152602481018390526001600160a01b039091169063a9059cbb906044016020604051808303816000875af1158015610a25573d6000803e3d6000fd5b505050506040513d601f19601f82011682018060405250810190610a4991906116ea565b5060405181815233907f61b2357f75eed32a19939598e4c7563879bacd78e9d957c31f0f9f70a3fd14a09060200160405180910390a260019150505b92915050565b6001546001600160a01b03163314610adb5760405162461bcd60e51b815260206004820152601360248201527220b236b4b71027b7363c90333ab731ba34b7b760691b60448201526064016104f8565b6001600e5460ff166003811115610af457610af46116ac565b14610b415760405162461bcd60e51b815260206004820152601560248201527f49434f2069736e27742072756e6e696e6720796574000000000000000000000060448201526064016104f8565b600e80546003919060ff19166001835b0217905550565b6001546001600160a01b03163314610ba85760405162461bcd60e51b815260206004820152601360248201527220b236b4b71027b7363c90333ab731ba34b7b760691b60448201526064016104f8565b6040514790339082156108fc029083906000818181858888f19350505050158015610bd7573d6000803e3d6000fd5b5050565b6001546001600160a01b03163314610c2b5760405162461bcd60e51b815260206004820152601360248201527220b236b4b71027b7363c90333ab731ba34b7b760691b60448201526064016104f8565b600b55565b60606000600e5460ff166003811115610c4b57610c4b6116ac565b03610c88575060408051808201909152600b81527f4e6f742053746172746564000000000000000000000000000000000000000000602082015290565b6001600e5460ff166003811115610ca157610ca16116ac565b03610cde575060408051808201909152600781527f52756e6e696e6700000000000000000000000000000000000000000000000000602082015290565b6002600e5460ff166003811115610cf757610cf76116ac565b03610d34575060408051808201909152600381527f456e640000000000000000000000000000000000000000000000000000000000602082015290565b5060408051808201909152600681527f48616c7465640000000000000000000000000000000000000000000000000000602082015290565b6001546000906001600160a01b03163314610dbf5760405162461bcd60e51b815260206004820152601360248201527220b236b4b71027b7363c90333ab731ba34b7b760691b60448201526064016104f8565b6002600e5460ff166003811115610dd857610dd86116ac565b14610e255760405162461bcd60e51b815260206004820152601260248201527f49434f2069736e2774206f76657220796574000000000000000000000000000060448201526064016104f8565b6002546040516370a0823160e01b81523060048201526000916001600160a01b0316906370a0823190602401602060405180830381865afa158015610e6e573d6000803e3d6000fd5b505050506040513d601f19601f82011682018060405250810190610e92919061170c565b60025460405163a9059cbb60e01b8152600060048201819052602482018490529293506001600160a01b039091169063a9059cbb906044016020604051808303816000875af1158015610ee9573d6000803e3d6000fd5b505050506040513d601f19601f82011682018060405250810190610f0d91906116ea565b905080610f5c5760405162461bcd60e51b815260206004820152601f60248201527f4661696c656420746f206275726e2072656d61696e696e6720746f6b656e730060448201526064016104f8565b604080516000815260208101849052428183015290517ffe9e0b0c1e3e9216717d5f66d10bc310b12c366417e150b4b1af9fb9620bca919181900360600190a160019250505090565b6001546001600160a01b03163314610ff55760405162461bcd60e51b815260206004820152601360248201527220b236b4b71027b7363c90333ab731ba34b7b760691b60448201526064016104f8565b6001600e5460ff16600381111561100e5761100e6116ac565b1461105b5760405162461bcd60e51b815260206004820152601b60248201527f49434f2053746174652069736e27742072756e6e696e6720796574000000000060448201526064016104f8565b600e80546002919060ff1916600183610b51565b6002546040516370a0823160e01b81523060048201526000916001600160a01b0316906370a0823190602401602060405180830381865afa1580156110b8573d6000803e3d6000fd5b505050506040513d601f19601f820116820180604052508101906110dc919061170c565b905090565b6002546040516370a0823160e01b81526001600160a01b03838116600483015260009216906370a0823190602401602060405180830381865afa15801561112c573d6000803e3d6000fd5b505050506040513d601f19601f82011682018060405250810190610a85919061170c565b6001546001600160a01b031633146111a05760405162461bcd60e51b815260206004820152601360248201527220b236b4b71027b7363c90333ab731ba34b7b760691b60448201526064016104f8565b6000600e5460ff1660038111156111b9576111b96116ac565b146112065760405162461bcd60e51b815260206004820152601960248201527f49434f2069736e277420696e206265666f72652073746174650000000000000060448201526064016104f8565b600e80546001919060ff19168280610b51565b6001546001600160a01b031633146112695760405162461bcd60e51b815260206004820152601360248201527220b236b4b71027b7363c90333ab731ba34b7b760691b60448201526064016104f8565b6040516370a0823160e01b81523060048201526000906001600160a01b038316906370a0823190602401602060405180830381865afa1580156112b0573d6000803e3d6000fd5b505050506040513d601f19601f820116820180604052508101906112d4919061170c565b116113215760405162461bcd60e51b815260206004820152601860248201527f53756666696369656e7420546f6b656e2062616c616e6365000000000000000060448201526064016104f8565b6040516370a0823160e01b81523060048201526001600160a01b0382169063a9059cbb90339083906370a0823190602401602060405180830381865afa15801561136f573d6000803e3d6000fd5b505050506040513d601f19601f82011682018060405250810190611393919061170c565b6040517fffffffff0000000000000000000000000000000000000000000000000000000060e085901b1681526001600160a01b03909216600483015260248201526044016020604051808303816000875af11580156113f6573d6000803e3d6000fd5b505050506040513d601f19601f82011682018060405250810190610bd791906116ea565b60008054604080517ffeaf968c000000000000000000000000000000000000000000000000000000008152905183926001600160a01b03169163feaf968c9160048083019260a09291908290030181865afa15801561147d573d6000803e3d6000fd5b505050506040513d601f19601f820116820180604052508101906114a1919061173f565b509195945050505050565b6001546001600160a01b031633146114fc5760405162461bcd60e51b815260206004820152601360248201527220b236b4b71027b7363c90333ab731ba34b7b760691b60448201526064016104f8565b6003600e5460ff166003811115611515576115156116ac565b146112065760405162461bcd60e51b815260206004820152601a60248201527f49434f2053746174652069736e27742068616c7465642079657400000000000060448201526064016104f8565b6001546001600160a01b031633146115b25760405162461bcd60e51b815260206004820152601360248201527220b236b4b71027b7363c90333ab731ba34b7b760691b60448201526064016104f8565b600a55565b60006115c382846117a5565b9392505050565b60006115c382846117c4565b60006115c382846117e6565b80356001600160a01b03811681146115f957600080fd5b919050565b6000806040838503121561161157600080fd5b82359150611621602084016115e2565b90509250929050565b60006020828403121561163c57600080fd5b6115c3826115e2565b60006020828403121561165757600080fd5b5035919050565b600060208083528351808285015260005b8181101561168b5785810183015185820160400152820161166f565b506000604082860101526040601f19601f8301168501019250505092915050565b634e487b7160e01b600052602160045260246000fd5b60208101600483106116e457634e487b7160e01b600052602160045260246000fd5b91905290565b6000602082840312156116fc57600080fd5b815180151581146115c357600080fd5b60006020828403121561171e57600080fd5b5051919050565b805169ffffffffffffffffffff811681146115f957600080fd5b600080600080600060a0868803121561175757600080fd5b61176086611725565b945060208601519350604086015192506060860151915061178360808701611725565b90509295509295909350565b634e487b7160e01b600052601160045260246000fd5b60008160001904831182151516156117bf576117bf61178f565b500290565b6000826117e157634e487b7160e01b600052601260045260246000fd5b500490565b80820180821115610a8557610a8561178f56fea2646970667358221220613498e173ff77c8df4319622cca29215915c5a1a14b3d9f32b51ad5033af8fe64736f6c63430008100033",
  "devdoc": {
    "kind": "dev",
    "methods": {},
    "version": 1
  },
  "userdoc": {
    "kind": "user",
    "methods": {},
    "version": 1
  },
  "storageLayout": {
    "storage": [
      {
        "astId": 612,
        "contract": "contracts/SYRFICO.sol:SYRFICO",
        "label": "priceFeed",
        "offset": 0,
        "slot": "0",
        "type": "t_contract(AggregatorV3Interface)45"
      },
      {
        "astId": 614,
        "contract": "contracts/SYRFICO.sol:SYRFICO",
        "label": "admin",
        "offset": 0,
        "slot": "1",
        "type": "t_address"
      },
      {
        "astId": 617,
        "contract": "contracts/SYRFICO.sol:SYRFICO",
        "label": "token",
        "offset": 0,
        "slot": "2",
        "type": "t_contract(WSYRF)1995"
      },
      {
        "astId": 620,
        "contract": "contracts/SYRFICO.sol:SYRFICO",
        "label": "BUSD",
        "offset": 0,
        "slot": "3",
        "type": "t_contract(IBEP20)606"
      },
      {
        "astId": 623,
        "contract": "contracts/SYRFICO.sol:SYRFICO",
        "label": "USDT",
        "offset": 0,
        "slot": "4",
        "type": "t_contract(IBEP20)606"
      },
      {
        "astId": 626,
        "contract": "contracts/SYRFICO.sol:SYRFICO",
        "label": "USDC",
        "offset": 0,
        "slot": "5",
        "type": "t_contract(IBEP20)606"
      },
      {
        "astId": 629,
        "contract": "contracts/SYRFICO.sol:SYRFICO",
        "label": "BUSD_Addr",
        "offset": 0,
        "slot": "6",
        "type": "t_address"
      },
      {
        "astId": 632,
        "contract": "contracts/SYRFICO.sol:SYRFICO",
        "label": "USDT_Addr",
        "offset": 0,
        "slot": "7",
        "type": "t_address"
      },
      {
        "astId": 635,
        "contract": "contracts/SYRFICO.sol:SYRFICO",
        "label": "USDC_Addr",
        "offset": 0,
        "slot": "8",
        "type": "t_address"
      },
      {
        "astId": 638,
        "contract": "contracts/SYRFICO.sol:SYRFICO",
        "label": "priceAddress",
        "offset": 0,
        "slot": "9",
        "type": "t_address"
      },
      {
        "astId": 641,
        "contract": "contracts/SYRFICO.sol:SYRFICO",
        "label": "tokenPrice",
        "offset": 0,
        "slot": "10",
        "type": "t_uint256"
      },
      {
        "astId": 644,
        "contract": "contracts/SYRFICO.sol:SYRFICO",
        "label": "hardCap",
        "offset": 0,
        "slot": "11",
        "type": "t_uint256"
      },
      {
        "astId": 646,
        "contract": "contracts/SYRFICO.sol:SYRFICO",
        "label": "raisedAmount",
        "offset": 0,
        "slot": "12",
        "type": "t_uint256"
      },
      {
        "astId": 650,
        "contract": "contracts/SYRFICO.sol:SYRFICO",
        "label": "investedAmountOf",
        "offset": 0,
        "slot": "13",
        "type": "t_mapping(t_address,t_uint256)"
      },
      {
        "astId": 658,
        "contract": "contracts/SYRFICO.sol:SYRFICO",
        "label": "ICOState",
        "offset": 0,
        "slot": "14",
        "type": "t_enum(State)655"
      }
    ],
    "types": {
      "t_address": {
        "encoding": "inplace",
        "label": "address",
        "numberOfBytes": "20"
      },
      "t_contract(AggregatorV3Interface)45": {
        "encoding": "inplace",
        "label": "contract AggregatorV3Interface",
        "numberOfBytes": "20"
      },
      "t_contract(IBEP20)606": {
        "encoding": "inplace",
        "label": "contract IBEP20",
        "numberOfBytes": "20"
      },
      "t_contract(WSYRF)1995": {
        "encoding": "inplace",
        "label": "contract WSYRF",
        "numberOfBytes": "20"
      },
      "t_enum(State)655": {
        "encoding": "inplace",
        "label": "enum SYRFICO.State",
        "numberOfBytes": "1"
      },
      "t_mapping(t_address,t_uint256)": {
        "encoding": "mapping",
        "key": "t_address",
        "label": "mapping(address => uint256)",
        "numberOfBytes": "32",
        "value": "t_uint256"
      },
      "t_uint256": {
        "encoding": "inplace",
        "label": "uint256",
        "numberOfBytes": "32"
      }
    }
  }
}