{
  "address": "0xf131E3a4A1bB55B0e187782207d0E81DEc1Fd2B5",
  "abi": [
    {
      "inputs": [],
      "stateMutability": "nonpayable",
      "type": "constructor"
    },
    {
      "anonymous": false,
      "inputs": [
        {
          "indexed": true,
          "internalType": "address",
          "name": "owner",
          "type": "address"
        },
        {
          "indexed": true,
          "internalType": "address",
          "name": "spender",
          "type": "address"
        },
        {
          "indexed": false,
          "internalType": "uint256",
          "name": "value",
          "type": "uint256"
        }
      ],
      "name": "Approval",
      "type": "event"
    },
    {
      "anonymous": false,
      "inputs": [
        {
          "indexed": true,
          "internalType": "address",
          "name": "previousOwner",
          "type": "address"
        },
        {
          "indexed": true,
          "internalType": "address",
          "name": "newOwner",
          "type": "address"
        }
      ],
      "name": "OwnershipTransferred",
      "type": "event"
    },
    {
      "anonymous": false,
      "inputs": [
        {
          "indexed": true,
          "internalType": "address",
          "name": "from",
          "type": "address"
        },
        {
          "indexed": true,
          "internalType": "address",
          "name": "to",
          "type": "address"
        },
        {
          "indexed": false,
          "internalType": "uint256",
          "name": "value",
          "type": "uint256"
        }
      ],
      "name": "Transfer",
      "type": "event"
    },
    {
      "inputs": [
        {
          "internalType": "address",
          "name": "tokenAddress",
          "type": "address"
        }
      ],
      "name": "airdrop",
      "outputs": [],
      "stateMutability": "nonpayable",
      "type": "function"
    },
    {
      "inputs": [
        {
          "internalType": "uint256",
          "name": "",
          "type": "uint256"
        }
      ],
      "name": "airdropAddress",
      "outputs": [
        {
          "internalType": "address",
          "name": "",
          "type": "address"
        }
      ],
      "stateMutability": "view",
      "type": "function"
    },
    {
      "inputs": [
        {
          "internalType": "uint256",
          "name": "",
          "type": "uint256"
        }
      ],
      "name": "airdropAmount",
      "outputs": [
        {
          "internalType": "uint256",
          "name": "",
          "type": "uint256"
        }
      ],
      "stateMutability": "view",
      "type": "function"
    },
    {
      "inputs": [
        {
          "internalType": "address",
          "name": "owner",
          "type": "address"
        },
        {
          "internalType": "address",
          "name": "spender",
          "type": "address"
        }
      ],
      "name": "allowance",
      "outputs": [
        {
          "internalType": "uint256",
          "name": "",
          "type": "uint256"
        }
      ],
      "stateMutability": "view",
      "type": "function"
    },
    {
      "inputs": [
        {
          "internalType": "address",
          "name": "spender",
          "type": "address"
        },
        {
          "internalType": "uint256",
          "name": "amount",
          "type": "uint256"
        }
      ],
      "name": "approve",
      "outputs": [
        {
          "internalType": "bool",
          "name": "",
          "type": "bool"
        }
      ],
      "stateMutability": "nonpayable",
      "type": "function"
    },
    {
      "inputs": [
        {
          "internalType": "address",
          "name": "account",
          "type": "address"
        }
      ],
      "name": "balanceOf",
      "outputs": [
        {
          "internalType": "uint256",
          "name": "",
          "type": "uint256"
        }
      ],
      "stateMutability": "view",
      "type": "function"
    },
    {
      "inputs": [
        {
          "internalType": "address",
          "name": "",
          "type": "address"
        }
      ],
      "name": "blacklistedUsers",
      "outputs": [
        {
          "internalType": "bool",
          "name": "",
          "type": "bool"
        }
      ],
      "stateMutability": "view",
      "type": "function"
    },
    {
      "inputs": [
        {
          "internalType": "uint256",
          "name": "amount",
          "type": "uint256"
        }
      ],
      "name": "burn",
      "outputs": [
        {
          "internalType": "bool",
          "name": "",
          "type": "bool"
        }
      ],
      "stateMutability": "nonpayable",
      "type": "function"
    },
    {
      "inputs": [],
      "name": "decimals",
      "outputs": [
        {
          "internalType": "uint8",
          "name": "",
          "type": "uint8"
        }
      ],
      "stateMutability": "view",
      "type": "function"
    },
    {
      "inputs": [
        {
          "internalType": "address",
          "name": "spender",
          "type": "address"
        },
        {
          "internalType": "uint256",
          "name": "subtractedValue",
          "type": "uint256"
        }
      ],
      "name": "decreaseAllowance",
      "outputs": [
        {
          "internalType": "bool",
          "name": "",
          "type": "bool"
        }
      ],
      "stateMutability": "nonpayable",
      "type": "function"
    },
    {
      "inputs": [],
      "name": "getOwner",
      "outputs": [
        {
          "internalType": "address",
          "name": "",
          "type": "address"
        }
      ],
      "stateMutability": "view",
      "type": "function"
    },
    {
      "inputs": [
        {
          "internalType": "address",
          "name": "spender",
          "type": "address"
        },
        {
          "internalType": "uint256",
          "name": "addedValue",
          "type": "uint256"
        }
      ],
      "name": "increaseAllowance",
      "outputs": [
        {
          "internalType": "bool",
          "name": "",
          "type": "bool"
        }
      ],
      "stateMutability": "nonpayable",
      "type": "function"
    },
    {
      "inputs": [
        {
          "internalType": "address",
          "name": "account",
          "type": "address"
        },
        {
          "internalType": "uint256",
          "name": "amount",
          "type": "uint256"
        }
      ],
      "name": "mint",
      "outputs": [
        {
          "internalType": "bool",
          "name": "",
          "type": "bool"
        }
      ],
      "stateMutability": "nonpayable",
      "type": "function"
    },
    {
      "inputs": [],
      "name": "name",
      "outputs": [
        {
          "internalType": "string",
          "name": "",
          "type": "string"
        }
      ],
      "stateMutability": "view",
      "type": "function"
    },
    {
      "inputs": [],
      "name": "owner",
      "outputs": [
        {
          "internalType": "address",
          "name": "",
          "type": "address"
        }
      ],
      "stateMutability": "view",
      "type": "function"
    },
    {
      "inputs": [],
      "name": "renounceOwnership",
      "outputs": [],
      "stateMutability": "nonpayable",
      "type": "function"
    },
    {
      "inputs": [
        {
          "internalType": "address[]",
          "name": "_airdropAddress",
          "type": "address[]"
        }
      ],
      "name": "setAirdropAddress",
      "outputs": [],
      "stateMutability": "nonpayable",
      "type": "function"
    },
    {
      "inputs": [
        {
          "internalType": "uint256[]",
          "name": "_airdropAmount",
          "type": "uint256[]"
        }
      ],
      "name": "setAirdropAmount",
      "outputs": [],
      "stateMutability": "nonpayable",
      "type": "function"
    },
    {
      "inputs": [
        {
          "internalType": "address",
          "name": "_addr",
          "type": "address"
        },
        {
          "internalType": "bool",
          "name": "_value",
          "type": "bool"
        }
      ],
      "name": "setBlacklisted",
      "outputs": [],
      "stateMutability": "nonpayable",
      "type": "function"
    },
    {
      "inputs": [
        {
          "internalType": "bool",
          "name": "_value",
          "type": "bool"
        }
      ],
      "name": "setTransferApproval",
      "outputs": [],
      "stateMutability": "nonpayable",
      "type": "function"
    },
    {
      "inputs": [],
      "name": "symbol",
      "outputs": [
        {
          "internalType": "string",
          "name": "",
          "type": "string"
        }
      ],
      "stateMutability": "view",
      "type": "function"
    },
    {
      "inputs": [],
      "name": "totalSupply",
      "outputs": [
        {
          "internalType": "uint256",
          "name": "",
          "type": "uint256"
        }
      ],
      "stateMutability": "view",
      "type": "function"
    },
    {
      "inputs": [
        {
          "internalType": "address",
          "name": "recipient",
          "type": "address"
        },
        {
          "internalType": "uint256",
          "name": "amount",
          "type": "uint256"
        }
      ],
      "name": "transfer",
      "outputs": [
        {
          "internalType": "bool",
          "name": "",
          "type": "bool"
        }
      ],
      "stateMutability": "nonpayable",
      "type": "function"
    },
    {
      "inputs": [],
      "name": "transferApproval",
      "outputs": [
        {
          "internalType": "bool",
          "name": "",
          "type": "bool"
        }
      ],
      "stateMutability": "view",
      "type": "function"
    },
    {
      "inputs": [
        {
          "internalType": "address",
          "name": "sender",
          "type": "address"
        },
        {
          "internalType": "address",
          "name": "recipient",
          "type": "address"
        },
        {
          "internalType": "uint256",
          "name": "amount",
          "type": "uint256"
        }
      ],
      "name": "transferFrom",
      "outputs": [
        {
          "internalType": "bool",
          "name": "",
          "type": "bool"
        }
      ],
      "stateMutability": "nonpayable",
      "type": "function"
    },
    {
      "inputs": [
        {
          "internalType": "address",
          "name": "newOwner",
          "type": "address"
        }
      ],
      "name": "transferOwnership",
      "outputs": [],
      "stateMutability": "nonpayable",
      "type": "function"
    }
  ],
  "transactionHash": "0x2277c72a49c3a9efe485629cbc20bcda2fb8d602d09316feebe2292580781763",
  "args": [],
  "numDeployments": 1,
  "solcInputHash": "f38d59dd57b1f7259afc51a324bbc47d",
  "bytecode": "0x6080604052600a805460ff191660011790553480156200001e57600080fd5b506200002a336200012a565b6040805180820190915260118152702bb930b83832b21029aca9231021b7b4b760791b60208201526007906200006190826200021f565b506040805180820190915260058152642ba9aca92360d91b60208201526006906200008d90826200021f565b506005805460ff191660121790556b409f9cbc7c4a04c220000000600481905560016000620000b93390565b6001600160a01b03168152602081019190915260400160002055336001600160a01b031660006001600160a01b03167fddf252ad1be2c89b69c2b068fc378daa952ba7f163c4a11628f55a4df523b3ef6004546040516200011c91815260200190565b60405180910390a3620002eb565b600080546001600160a01b038381166001600160a01b0319831681178455604051919092169283917f8be0079c531659141344cd1fd0a4f28419497f9722a3daafe3b4186f6b6457e09190a35050565b634e487b7160e01b600052604160045260246000fd5b600181811c90821680620001a557607f821691505b602082108103620001c657634e487b7160e01b600052602260045260246000fd5b50919050565b601f8211156200021a57600081815260208120601f850160051c81016020861015620001f55750805b601f850160051c820191505b81811015620002165782815560010162000201565b5050505b505050565b81516001600160401b038111156200023b576200023b6200017a565b62000253816200024c845462000190565b84620001cc565b602080601f8311600181146200028b5760008415620002725750858301515b600019600386901b1c1916600185901b17855562000216565b600085815260208120601f198616915b82811015620002bc578886015182559484019460019091019084016200029b565b5085821015620002db5787850151600019600388901b60f8161c191681555b5050505050600190811b01905550565b6115ec80620002fb6000396000f3fe608060405234801561001057600080fd5b50600436106101ae5760003560e01c806378e3f3f2116100ee578063a4d5a3a511610097578063d01dd6d211610071578063d01dd6d214610393578063d186ab6a146103a6578063dd62ed3e146103b3578063f2fde38b146103ec57600080fd5b8063a4d5a3a51461035a578063a9059cbb1461036d578063b6d45b901461038057600080fd5b806395d89b41116100c857806395d89b411461032c5780639d181d4414610334578063a457c2d71461034757600080fd5b806378e3f3f2146102e3578063893d20e8146102f65780638da5cb5b1461031b57600080fd5b8063313ce5671161015b57806342966c681161013557806342966c681461028c578063668ba8c31461029f57806370a08231146102b2578063715018a6146102db57600080fd5b8063313ce56714610251578063395093511461026657806340c10f191461027957600080fd5b806321860a051161018c57806321860a051461020657806322c0aec71461021b57806323b872dd1461023e57600080fd5b806306fdde03146101b3578063095ea7b3146101d157806318160ddd146101f4575b600080fd5b6101bb6103ff565b6040516101c89190611138565b60405180910390f35b6101e46101df3660046111a2565b610491565b60405190151581526020016101c8565b6004545b6040519081526020016101c8565b6102196102143660046111cc565b6104a8565b005b6101e46102293660046111cc565b60036020526000908152604090205460ff1681565b6101e461024c3660046111e7565b6105b5565b60055460405160ff90911681526020016101c8565b6101e46102743660046111a2565b6106d3565b6101e46102873660046111a2565b610709565b6101e461029a366004611223565b610715565b6102196102ad3660046112a7565b610729565b6101f86102c03660046111cc565b6001600160a01b031660009081526001602052604090205490565b610219610744565b6102196102f1366004611344565b610758565b6000546001600160a01b03165b6040516001600160a01b0390911681526020016101c8565b6000546001600160a01b0316610303565b6101bb610773565b6102196103423660046113d8565b610782565b6101e46103553660046111a2565b6107e5565b6101f8610368366004611223565b610834565b6101e461037b3660046111a2565b610855565b61030361038e366004611223565b610912565b6102196103a13660046113f5565b61093c565b600a546101e49060ff1681565b6101f86103c136600461142c565b6001600160a01b03918216600090815260026020908152604080832093909416825291909152205490565b6102196103fa3660046111cc565b6109cd565b60606007805461040e9061145f565b80601f016020809104026020016040519081016040528092919081815260200182805461043a9061145f565b80156104875780601f1061045c57610100808354040283529160200191610487565b820191906000526020600020905b81548152906001019060200180831161046a57829003601f168201915b5050505050905090565b600061049e338484610a5d565b5060015b92915050565b6104b0610bb6565b60005b6008548110156105b157816001600160a01b031663a9059cbb600883815481106104df576104df611499565b600091825260209091200154600980546001600160a01b03909216918590811061050b5761050b611499565b6000918252602090912001546040517fffffffff0000000000000000000000000000000000000000000000000000000060e085901b1681526001600160a01b03909216600483015260248201526044016020604051808303816000875af115801561057a573d6000803e3d6000fd5b505050506040513d601f19601f8201168201806040525081019061059e91906114af565b50806105a9816114e2565b9150506104b3565b5050565b3360009081526003602052604081205460ff161561061a5760405162461bcd60e51b815260206004820152601a60248201527f596f7520617265206120626c61636b6c6973746564207573657200000000000060448201526064015b60405180910390fd5b600a5460ff1661066c5760405162461bcd60e51b815260206004820152601b60248201527f43616e2774207472616e7366657220575359524620746f6b656e7300000000006044820152606401610611565b610677848484610c10565b6106c984336106c48560405180606001604052806028815260200161156a602891396001600160a01b038a1660009081526002602090815260408083203384529091529020549190610dc8565b610a5d565b5060019392505050565b3360008181526002602090815260408083206001600160a01b0387168452909152812054909161049e9185906106c49086610df4565b600061049e8383610e07565b60006107213383610eed565b506001919050565b610731610bb6565b80516105b1906008906020840190611076565b61074c610bb6565b610756600061100d565b565b610760610bb6565b80516105b19060099060208401906110e8565b60606006805461040e9061145f565b61078a610bb6565b600a5481151560ff9091161515036107d25760405162461bcd60e51b815260206004820152600b60248201526a139bdd0818da185b99d95960aa1b6044820152606401610611565b600a805460ff1916911515919091179055565b600061049e33846106c485604051806060016040528060258152602001611592602591393360009081526002602090815260408083206001600160a01b038d1684529091529020549190610dc8565b6009818154811061084457600080fd5b600091825260209091200154905081565b3360009081526003602052604081205460ff16156108b55760405162461bcd60e51b815260206004820152601a60248201527f596f7520617265206120626c61636b6c697374656420757365720000000000006044820152606401610611565b600a5460ff166109075760405162461bcd60e51b815260206004820152601b60248201527f43616e2774207472616e7366657220575359524620746f6b656e7300000000006044820152606401610611565b61049e338484610c10565b6008818154811061092257600080fd5b6000918252602090912001546001600160a01b0316905081565b610944610bb6565b6001600160a01b03821660009081526003602052604090205481151560ff9091161515036109a25760405162461bcd60e51b815260206004820152600b60248201526a139bdd0818da185b99d95960aa1b6044820152606401610611565b6001600160a01b03919091166000908152600360205260409020805460ff1916911515919091179055565b6109d5610bb6565b6001600160a01b038116610a515760405162461bcd60e51b815260206004820152602660248201527f4f776e61626c653a206e6577206f776e657220697320746865207a65726f206160448201527f64647265737300000000000000000000000000000000000000000000000000006064820152608401610611565b610a5a8161100d565b50565b6001600160a01b038316610ad85760405162461bcd60e51b8152602060048201526024808201527f45524332303a20617070726f76652066726f6d20746865207a65726f2061646460448201527f72657373000000000000000000000000000000000000000000000000000000006064820152608401610611565b6001600160a01b038216610b545760405162461bcd60e51b815260206004820152602260248201527f45524332303a20617070726f766520746f20746865207a65726f20616464726560448201527f73730000000000000000000000000000000000000000000000000000000000006064820152608401610611565b6001600160a01b0383811660008181526002602090815260408083209487168084529482529182902085905590518481527f8c5be1e5ebec7d5bd14f71427d1e84f3dd0314c0f7b2291e5b200ac8c7c3b92591015b60405180910390a3505050565b6000546001600160a01b031633146107565760405162461bcd60e51b815260206004820181905260248201527f4f776e61626c653a2063616c6c6572206973206e6f7420746865206f776e65726044820152606401610611565b6001600160a01b038316610c8c5760405162461bcd60e51b815260206004820152602560248201527f45524332303a207472616e736665722066726f6d20746865207a65726f20616460448201527f64726573730000000000000000000000000000000000000000000000000000006064820152608401610611565b6001600160a01b038216610d085760405162461bcd60e51b815260206004820152602360248201527f45524332303a207472616e7366657220746f20746865207a65726f206164647260448201527f65737300000000000000000000000000000000000000000000000000000000006064820152608401610611565b610d4581604051806060016040528060268152602001611544602691396001600160a01b0386166000908152600160205260409020549190610dc8565b6001600160a01b038085166000908152600160205260408082209390935590841681522054610d749082610df4565b6001600160a01b0380841660008181526001602052604090819020939093559151908516907fddf252ad1be2c89b69c2b068fc378daa952ba7f163c4a11628f55a4df523b3ef90610ba99085815260200190565b60008184841115610dec5760405162461bcd60e51b81526004016106119190611138565b505050900390565b6000610e0082846114fb565b9392505050565b6001600160a01b038216610e5d5760405162461bcd60e51b815260206004820152601f60248201527f45524332303a206d696e7420746f20746865207a65726f2061646472657373006044820152606401610611565b600454610e6a9082610df4565b6004556001600160a01b038216600090815260016020526040902054610e909082610df4565b6001600160a01b0383166000818152600160205260408082209390935591519091907fddf252ad1be2c89b69c2b068fc378daa952ba7f163c4a11628f55a4df523b3ef90610ee19085815260200190565b60405180910390a35050565b6001600160a01b038216610f695760405162461bcd60e51b815260206004820152602160248201527f45524332303a206275726e2066726f6d20746865207a65726f2061646472657360448201527f73000000000000000000000000000000000000000000000000000000000000006064820152608401610611565b610fa681604051806060016040528060228152602001611522602291396001600160a01b0385166000908152600160205260409020549190610dc8565b6001600160a01b038316600090815260016020526040902055600454610fcc908261106a565b6004556040518181526000906001600160a01b038416907fddf252ad1be2c89b69c2b068fc378daa952ba7f163c4a11628f55a4df523b3ef90602001610ee1565b600080546001600160a01b0383811673ffffffffffffffffffffffffffffffffffffffff19831681178455604051919092169283917f8be0079c531659141344cd1fd0a4f28419497f9722a3daafe3b4186f6b6457e09190a35050565b6000610e00828461150e565b8280548282559060005260206000209081019282156110d8579160200282015b828111156110d8578251825473ffffffffffffffffffffffffffffffffffffffff19166001600160a01b03909116178255602090920191600190910190611096565b506110e4929150611123565b5090565b8280548282559060005260206000209081019282156110d8579160200282015b828111156110d8578251825591602001919060010190611108565b5b808211156110e45760008155600101611124565b600060208083528351808285015260005b8181101561116557858101830151858201604001528201611149565b506000604082860101526040601f19601f8301168501019250505092915050565b80356001600160a01b038116811461119d57600080fd5b919050565b600080604083850312156111b557600080fd5b6111be83611186565b946020939093013593505050565b6000602082840312156111de57600080fd5b610e0082611186565b6000806000606084860312156111fc57600080fd5b61120584611186565b925061121360208501611186565b9150604084013590509250925092565b60006020828403121561123557600080fd5b5035919050565b634e487b7160e01b600052604160045260246000fd5b604051601f8201601f1916810167ffffffffffffffff8111828210171561127b5761127b61123c565b604052919050565b600067ffffffffffffffff82111561129d5761129d61123c565b5060051b60200190565b600060208083850312156112ba57600080fd5b823567ffffffffffffffff8111156112d157600080fd5b8301601f810185136112e257600080fd5b80356112f56112f082611283565b611252565b81815260059190911b8201830190838101908783111561131457600080fd5b928401925b828410156113395761132a84611186565b82529284019290840190611319565b979650505050505050565b6000602080838503121561135757600080fd5b823567ffffffffffffffff81111561136e57600080fd5b8301601f8101851361137f57600080fd5b803561138d6112f082611283565b81815260059190911b820183019083810190878311156113ac57600080fd5b928401925b82841015611339578335825292840192908401906113b1565b8015158114610a5a57600080fd5b6000602082840312156113ea57600080fd5b8135610e00816113ca565b6000806040838503121561140857600080fd5b61141183611186565b91506020830135611421816113ca565b809150509250929050565b6000806040838503121561143f57600080fd5b61144883611186565b915061145660208401611186565b90509250929050565b600181811c9082168061147357607f821691505b60208210810361149357634e487b7160e01b600052602260045260246000fd5b50919050565b634e487b7160e01b600052603260045260246000fd5b6000602082840312156114c157600080fd5b8151610e00816113ca565b634e487b7160e01b600052601160045260246000fd5b6000600182016114f4576114f46114cc565b5060010190565b808201808211156104a2576104a26114cc565b818103818111156104a2576104a26114cc56fe45524332303a206275726e20616d6f756e7420657863656564732062616c616e636545524332303a207472616e7366657220616d6f756e7420657863656564732062616c616e636545524332303a207472616e7366657220616d6f756e74206578636565647320616c6c6f77616e636545524332303a2064656372656173656420616c6c6f77616e63652062656c6f77207a65726fa26469706673582212201264e64eaae35739d29d47735b6b428343c148f0dfc3cfb2ebcbc75026c8811364736f6c63430008100033",
  "devdoc": {
    "kind": "dev",
    "methods": {
      "airdrop(address)": {
        "details": "function that airdrops WSYRF tokens to airdrop addresses*"
      },
      "allowance(address,address)": {
        "details": "See {ERC20-allowance}."
      },
      "approve(address,uint256)": {
        "details": "See {ERC20-approve}. Requirements: - `spender` cannot be the zero address."
      },
      "balanceOf(address)": {
        "details": "See {ERC20-balanceOf}."
      },
      "burn(uint256)": {
        "details": "Destroys `amount` tokens and assigns them to `_msgSender()`, reducing the total supply. Requirements - `_msgSender()` must be the token owner"
      },
      "decimals()": {
        "details": "Returns the token decimals."
      },
      "decreaseAllowance(address,uint256)": {
        "details": "Atomically decreases the allowance granted to `spender` by the caller. This is an alternative to {approve} that can be used as a mitigation for problems described in {ERC20-approve}. Emits an {Approval} event indicating the updated allowance. Requirements: - `spender` cannot be the zero address. - `spender` must have allowance for the caller of at least `subtractedValue`."
      },
      "getOwner()": {
        "details": "Returns the erc token owner."
      },
      "increaseAllowance(address,uint256)": {
        "details": "Atomically increases the allowance granted to `spender` by the caller. This is an alternative to {approve} that can be used as a mitigation for problems described in {ERC20-approve}. Emits an {Approval} event indicating the updated allowance. Requirements: - `spender` cannot be the zero address."
      },
      "mint(address,uint256)": {
        "details": "Creates `amount` tokens and assigns them to `_msgSender()`, increasing the total supply. Requirements - `_msgSender()` must be the token owner"
      },
      "name()": {
        "details": "Returns the token name."
      },
      "owner()": {
        "details": "Returns the address of the current owner."
      },
      "renounceOwnership()": {
        "details": "Leaves the contract without owner. It will not be possible to call `onlyOwner` functions anymore. Can only be called by the current owner. NOTE: Renouncing ownership will leave the contract without an owner, thereby removing any functionality that is only available to the owner."
      },
      "setAirdropAddress(address[])": {
        "details": "function that sets airdrop address array*"
      },
      "setAirdropAmount(uint256[])": {
        "details": "function that sets airdrop amount array*"
      },
      "setBlacklisted(address,bool)": {
        "details": "function that sets blacklisted address*"
      },
      "setTransferApproval(bool)": {
        "details": "function that sets transfer approval status*"
      },
      "symbol()": {
        "details": "Returns the token symbol."
      },
      "totalSupply()": {
        "details": "See {ERC20-totalSupply}."
      },
      "transfer(address,uint256)": {
        "details": "See {ERC20-transfer}. Requirements: - `recipient` cannot be the zero address. - the caller must have a balance of at least `amount`."
      },
      "transferFrom(address,address,uint256)": {
        "details": "See {ERC20-transferFrom}. Emits an {Approval} event indicating the updated allowance. This is not required by the EIP. See the note at the beginning of {ERC20}; Requirements: - `sender` and `recipient` cannot be the zero address. - `sender` must have a balance of at least `amount`. - the caller must have allowance for `sender`'s tokens of at least `amount`."
      },
      "transferOwnership(address)": {
        "details": "Transfers ownership of the contract to a new account (`newOwner`). Can only be called by the current owner."
      }
    },
    "version": 1
  },
  "userdoc": {
    "kind": "user",
    "methods": {
      "airdrop(address)": {
        "notice": "airdrop"
      },
      "setAirdropAddress(address[])": {
        "notice": "setAirdropAddress"
      },
      "setAirdropAmount(uint256[])": {
        "notice": "setAirdropAmount"
      },
      "setBlacklisted(address,bool)": {
        "notice": "setBlacklisted"
      },
      "setTransferApproval(bool)": {
        "notice": "setTransferApproval"
      }
    },
    "version": 1
  },
  "storageLayout": {
    "storage": [
      {
        "astId": 53,
        "contract": "contracts/WSYRF.sol:WSYRF",
        "label": "_owner",
        "offset": 0,
        "slot": "0",
        "type": "t_address"
      },
      {
        "astId": 1329,
        "contract": "contracts/WSYRF.sol:WSYRF",
        "label": "_balances",
        "offset": 0,
        "slot": "1",
        "type": "t_mapping(t_address,t_uint256)"
      },
      {
        "astId": 1335,
        "contract": "contracts/WSYRF.sol:WSYRF",
        "label": "_allowances",
        "offset": 0,
        "slot": "2",
        "type": "t_mapping(t_address,t_mapping(t_address,t_uint256))"
      },
      {
        "astId": 1339,
        "contract": "contracts/WSYRF.sol:WSYRF",
        "label": "blacklistedUsers",
        "offset": 0,
        "slot": "3",
        "type": "t_mapping(t_address,t_bool)"
      },
      {
        "astId": 1341,
        "contract": "contracts/WSYRF.sol:WSYRF",
        "label": "_totalSupply",
        "offset": 0,
        "slot": "4",
        "type": "t_uint256"
      },
      {
        "astId": 1343,
        "contract": "contracts/WSYRF.sol:WSYRF",
        "label": "_decimals",
        "offset": 0,
        "slot": "5",
        "type": "t_uint8"
      },
      {
        "astId": 1345,
        "contract": "contracts/WSYRF.sol:WSYRF",
        "label": "_symbol",
        "offset": 0,
        "slot": "6",
        "type": "t_string_storage"
      },
      {
        "astId": 1347,
        "contract": "contracts/WSYRF.sol:WSYRF",
        "label": "_name",
        "offset": 0,
        "slot": "7",
        "type": "t_string_storage"
      },
      {
        "astId": 1350,
        "contract": "contracts/WSYRF.sol:WSYRF",
        "label": "airdropAddress",
        "offset": 0,
        "slot": "8",
        "type": "t_array(t_address)dyn_storage"
      },
      {
        "astId": 1353,
        "contract": "contracts/WSYRF.sol:WSYRF",
        "label": "airdropAmount",
        "offset": 0,
        "slot": "9",
        "type": "t_array(t_uint256)dyn_storage"
      },
      {
        "astId": 1356,
        "contract": "contracts/WSYRF.sol:WSYRF",
        "label": "transferApproval",
        "offset": 0,
        "slot": "10",
        "type": "t_bool"
      }
    ],
    "types": {
      "t_address": {
        "encoding": "inplace",
        "label": "address",
        "numberOfBytes": "20"
      },
      "t_array(t_address)dyn_storage": {
        "base": "t_address",
        "encoding": "dynamic_array",
        "label": "address[]",
        "numberOfBytes": "32"
      },
      "t_array(t_uint256)dyn_storage": {
        "base": "t_uint256",
        "encoding": "dynamic_array",
        "label": "uint256[]",
        "numberOfBytes": "32"
      },
      "t_bool": {
        "encoding": "inplace",
        "label": "bool",
        "numberOfBytes": "1"
      },
      "t_mapping(t_address,t_bool)": {
        "encoding": "mapping",
        "key": "t_address",
        "label": "mapping(address => bool)",
        "numberOfBytes": "32",
        "value": "t_bool"
      },
      "t_mapping(t_address,t_mapping(t_address,t_uint256))": {
        "encoding": "mapping",
        "key": "t_address",
        "label": "mapping(address => mapping(address => uint256))",
        "numberOfBytes": "32",
        "value": "t_mapping(t_address,t_uint256)"
      },
      "t_mapping(t_address,t_uint256)": {
        "encoding": "mapping",
        "key": "t_address",
        "label": "mapping(address => uint256)",
        "numberOfBytes": "32",
        "value": "t_uint256"
      },
      "t_string_storage": {
        "encoding": "bytes",
        "label": "string",
        "numberOfBytes": "32"
      },
      "t_uint256": {
        "encoding": "inplace",
        "label": "uint256",
        "numberOfBytes": "32"
      },
      "t_uint8": {
        "encoding": "inplace",
        "label": "uint8",
        "numberOfBytes": "1"
      }
    }
  }
}